{
  "_format": "hh-sol-artifact-1",
  "contractName": "PlatziPunksDNA",
  "sourceName": "contracts/PlatziPunksDNA.sol",
  "abi": [
    {
      "inputs": [
        {
          "internalType": "uint256",
          "name": "_tokenId",
          "type": "uint256"
        },
        {
          "internalType": "address",
          "name": "_minter",
          "type": "address"
        }
      ],
      "name": "deterministicPseudoRandomDNA",
      "outputs": [
        {
          "internalType": "uint256",
          "name": "",
          "type": "uint256"
        }
      ],
      "stateMutability": "pure",
      "type": "function"
    },
    {
      "inputs": [
        {
          "internalType": "uint256",
          "name": "_dna",
          "type": "uint256"
        }
      ],
      "name": "getAccessoriesType",
      "outputs": [
        {
          "internalType": "string",
          "name": "",
          "type": "string"
        }
      ],
      "stateMutability": "view",
      "type": "function"
    },
    {
      "inputs": [
        {
          "internalType": "uint256",
          "name": "_dna",
          "type": "uint256"
        }
      ],
      "name": "getClotheColor",
      "outputs": [
        {
          "internalType": "string",
          "name": "",
          "type": "string"
        }
      ],
      "stateMutability": "view",
      "type": "function"
    },
    {
      "inputs": [
        {
          "internalType": "uint256",
          "name": "_dna",
          "type": "uint256"
        }
      ],
      "name": "getClotheType",
      "outputs": [
        {
          "internalType": "string",
          "name": "",
          "type": "string"
        }
      ],
      "stateMutability": "view",
      "type": "function"
    },
    {
      "inputs": [
        {
          "internalType": "uint256",
          "name": "_dna",
          "type": "uint256"
        }
      ],
      "name": "getEyeBrowType",
      "outputs": [
        {
          "internalType": "string",
          "name": "",
          "type": "string"
        }
      ],
      "stateMutability": "view",
      "type": "function"
    },
    {
      "inputs": [
        {
          "internalType": "uint256",
          "name": "_dna",
          "type": "uint256"
        }
      ],
      "name": "getEyeType",
      "outputs": [
        {
          "internalType": "string",
          "name": "",
          "type": "string"
        }
      ],
      "stateMutability": "view",
      "type": "function"
    },
    {
      "inputs": [
        {
          "internalType": "uint256",
          "name": "_dna",
          "type": "uint256"
        }
      ],
      "name": "getFacialHairColor",
      "outputs": [
        {
          "internalType": "string",
          "name": "",
          "type": "string"
        }
      ],
      "stateMutability": "view",
      "type": "function"
    },
    {
      "inputs": [
        {
          "internalType": "uint256",
          "name": "_dna",
          "type": "uint256"
        }
      ],
      "name": "getFacialHairType",
      "outputs": [
        {
          "internalType": "string",
          "name": "",
          "type": "string"
        }
      ],
      "stateMutability": "view",
      "type": "function"
    },
    {
      "inputs": [
        {
          "internalType": "uint256",
          "name": "_dna",
          "type": "uint256"
        }
      ],
      "name": "getGraphicType",
      "outputs": [
        {
          "internalType": "string",
          "name": "",
          "type": "string"
        }
      ],
      "stateMutability": "view",
      "type": "function"
    },
    {
      "inputs": [
        {
          "internalType": "uint256",
          "name": "_dna",
          "type": "uint256"
        }
      ],
      "name": "getHairColor",
      "outputs": [
        {
          "internalType": "string",
          "name": "",
          "type": "string"
        }
      ],
      "stateMutability": "view",
      "type": "function"
    },
    {
      "inputs": [
        {
          "internalType": "uint256",
          "name": "_dna",
          "type": "uint256"
        }
      ],
      "name": "getHatColor",
      "outputs": [
        {
          "internalType": "string",
          "name": "",
          "type": "string"
        }
      ],
      "stateMutability": "view",
      "type": "function"
    },
    {
      "inputs": [
        {
          "internalType": "uint256",
          "name": "_dna",
          "type": "uint256"
        }
      ],
      "name": "getMouthType",
      "outputs": [
        {
          "internalType": "string",
          "name": "",
          "type": "string"
        }
      ],
      "stateMutability": "view",
      "type": "function"
    },
    {
      "inputs": [
        {
          "internalType": "uint256",
          "name": "_dna",
          "type": "uint256"
        }
      ],
      "name": "getSkinColor",
      "outputs": [
        {
          "internalType": "string",
          "name": "",
          "type": "string"
        }
      ],
      "stateMutability": "view",
      "type": "function"
    },
    {
      "inputs": [
        {
          "internalType": "uint256",
          "name": "_dna",
          "type": "uint256"
        }
      ],
      "name": "getTopType",
      "outputs": [
        {
          "internalType": "string",
          "name": "",
          "type": "string"
        }
      ],
      "stateMutability": "view",
      "type": "function"
    }
  ],
  "bytecode": "0x60806040526040518060e001604052806040518060400160405280600581526020017f426c616e6b00000000000000000000000000000000000000000000000000000081525081526020016040518060400160405280600481526020017f4b7572740000000000000000000000000000000000000000000000000000000081525081526020016040518060400160405280600e81526020017f507265736372697074696f6e303100000000000000000000000000000000000081525081526020016040518060400160405280600e81526020017f507265736372697074696f6e303200000000000000000000000000000000000081525081526020016040518060400160405280600581526020017f526f756e6400000000000000000000000000000000000000000000000000000081525081526020016040518060400160405280600a81526020017f53756e676c61737365730000000000000000000000000000000000000000000081525081526020016040518060400160405280600981526020017f57617966617265727300000000000000000000000000000000000000000000008152508152506000906007620001bc92919062002633565b50604051806101e001604052806040518060400160405280600581526020017f426c61636b00000000000000000000000000000000000000000000000000000081525081526020016040518060400160405280600681526020017f426c75653031000000000000000000000000000000000000000000000000000081525081526020016040518060400160405280600681526020017f426c75653032000000000000000000000000000000000000000000000000000081525081526020016040518060400160405280600681526020017f426c75653033000000000000000000000000000000000000000000000000000081525081526020016040518060400160405280600681526020017f477261793031000000000000000000000000000000000000000000000000000081525081526020016040518060400160405280600681526020017f477261793032000000000000000000000000000000000000000000000000000081525081526020016040518060400160405280600781526020017f486561746865720000000000000000000000000000000000000000000000000081525081526020016040518060400160405280600a81526020017f50617374656c426c75650000000000000000000000000000000000000000000081525081526020016040518060400160405280600b81526020017f50617374656c477265656e00000000000000000000000000000000000000000081525081526020016040518060400160405280600c81526020017f50617374656c4f72616e6765000000000000000000000000000000000000000081525081526020016040518060400160405280600981526020017f50617374656c526564000000000000000000000000000000000000000000000081525081526020016040518060400160405280600c81526020017f50617374656c59656c6c6f77000000000000000000000000000000000000000081525081526020016040518060400160405280600481526020017f50696e6b0000000000000000000000000000000000000000000000000000000081525081526020016040518060400160405280600381526020017f526564000000000000000000000000000000000000000000000000000000000081525081526020016040518060400160405280600581526020017f5768697465000000000000000000000000000000000000000000000000000000815250815250600190600f6200054e9291906200269a565b506040518061012001604052806040518060400160405280600b81526020017f426c617a6572536869727400000000000000000000000000000000000000000081525081526020016040518060400160405280600d81526020017f426c617a6572537765617465720000000000000000000000000000000000000081525081526020016040518060400160405280600d81526020017f436f6c6c6172537765617465720000000000000000000000000000000000000081525081526020016040518060400160405280600c81526020017f477261706869635368697274000000000000000000000000000000000000000081525081526020016040518060400160405280600681526020017f486f6f646965000000000000000000000000000000000000000000000000000081525081526020016040518060400160405280600781526020017f4f766572616c6c0000000000000000000000000000000000000000000000000081525081526020016040518060400160405280600d81526020017f5368697274437265774e65636b0000000000000000000000000000000000000081525081526020016040518060400160405280600e81526020017f536869727453636f6f704e65636b00000000000000000000000000000000000081525081526020016040518060400160405280600a81526020017f5368697274564e65636b0000000000000000000000000000000000000000000081525081525060029060096200077e92919062002701565b506040518061018001604052806040518060400160405280600581526020017f436c6f736500000000000000000000000000000000000000000000000000000081525081526020016040518060400160405280600381526020017f437279000000000000000000000000000000000000000000000000000000000081525081526020016040518060400160405280600781526020017f44656661756c740000000000000000000000000000000000000000000000000081525081526020016040518060400160405280600581526020017f44697a7a7900000000000000000000000000000000000000000000000000000081525081526020016040518060400160405280600781526020017f457965526f6c6c0000000000000000000000000000000000000000000000000081525081526020016040518060400160405280600581526020017f486170707900000000000000000000000000000000000000000000000000000081525081526020016040518060400160405280600681526020017f486561727473000000000000000000000000000000000000000000000000000081525081526020016040518060400160405280600481526020017f536964650000000000000000000000000000000000000000000000000000000081525081526020016040518060400160405280600681526020017f537175696e74000000000000000000000000000000000000000000000000000081525081526020016040518060400160405280600981526020017f537572707269736564000000000000000000000000000000000000000000000081525081526020016040518060400160405280600481526020017f57696e6b0000000000000000000000000000000000000000000000000000000081525081526020016040518060400160405280600981526020017f57696e6b5761636b790000000000000000000000000000000000000000000000815250815250600390600c62000a5f92919062002768565b506040518061018001604052806040518060400160405280600581526020017f416e67727900000000000000000000000000000000000000000000000000000081525081526020016040518060400160405280600c81526020017f416e6772794e61747572616c000000000000000000000000000000000000000081525081526020016040518060400160405280600781526020017f44656661756c740000000000000000000000000000000000000000000000000081525081526020016040518060400160405280600e81526020017f44656661756c744e61747572616c00000000000000000000000000000000000081525081526020016040518060400160405280600b81526020017f466c61744e61747572616c00000000000000000000000000000000000000000081525081526020016040518060400160405280600d81526020017f526169736564457863697465640000000000000000000000000000000000000081525081526020016040518060400160405280601481526020017f526169736564457863697465644e61747572616c00000000000000000000000081525081526020016040518060400160405280600c81526020017f536164436f6e6365726e6564000000000000000000000000000000000000000081525081526020016040518060400160405280601381526020017f536164436f6e6365726e65644e61747572616c0000000000000000000000000081525081526020016040518060400160405280600e81526020017f556e6962726f774e61747572616c00000000000000000000000000000000000081525081526020016040518060400160405280600681526020017f5570446f776e000000000000000000000000000000000000000000000000000081525081526020016040518060400160405280600d81526020017f5570446f776e4e61747572616c00000000000000000000000000000000000000815250815250600490600c62000d4092919062002768565b506040518061010001604052806040518060400160405280600681526020017f41756275726e000000000000000000000000000000000000000000000000000081525081526020016040518060400160405280600581526020017f426c61636b00000000000000000000000000000000000000000000000000000081525081526020016040518060400160405280600681526020017f426c6f6e6465000000000000000000000000000000000000000000000000000081525081526020016040518060400160405280600c81526020017f426c6f6e6465476f6c64656e000000000000000000000000000000000000000081525081526020016040518060400160405280600581526020017f42726f776e00000000000000000000000000000000000000000000000000000081525081526020016040518060400160405280600981526020017f42726f776e4461726b000000000000000000000000000000000000000000000081525081526020016040518060400160405280600881526020017f506c6174696e756d00000000000000000000000000000000000000000000000081525081526020016040518060400160405280600381526020017f5265640000000000000000000000000000000000000000000000000000000000815250815250600590600862000f35929190620027cf565b506040518060c001604052806040518060400160405280600581526020017f426c616e6b00000000000000000000000000000000000000000000000000000081525081526020016040518060400160405280600b81526020017f42656172644d656469756d00000000000000000000000000000000000000000081525081526020016040518060400160405280600a81526020017f42656172644c696768740000000000000000000000000000000000000000000081525081526020016040518060400160405280600d81526020017f42656172644d616765737469630000000000000000000000000000000000000081525081526020016040518060400160405280600e81526020017f4d6f7573746163686546616e637900000000000000000000000000000000000081525081526020016040518060400160405280600f81526020017f4d6f757374616368654d61676e756d00000000000000000000000000000000008152508152506006906006620010b392919062002836565b506040518061014001604052806040518060400160405280600681526020017f41756275726e000000000000000000000000000000000000000000000000000081525081526020016040518060400160405280600581526020017f426c61636b00000000000000000000000000000000000000000000000000000081525081526020016040518060400160405280600681526020017f426c6f6e6465000000000000000000000000000000000000000000000000000081525081526020016040518060400160405280600c81526020017f426c6f6e6465476f6c64656e000000000000000000000000000000000000000081525081526020016040518060400160405280600581526020017f42726f776e00000000000000000000000000000000000000000000000000000081525081526020016040518060400160405280600981526020017f42726f776e4461726b000000000000000000000000000000000000000000000081525081526020016040518060400160405280600a81526020017f50617374656c50696e6b0000000000000000000000000000000000000000000081525081526020016040518060400160405280600881526020017f506c6174696e756d00000000000000000000000000000000000000000000000081525081526020016040518060400160405280600381526020017f526564000000000000000000000000000000000000000000000000000000000081525081526020016040518060400160405280600a81526020017f53696c7665724772617900000000000000000000000000000000000000000000815250815250600790600a6200131e9291906200289d565b50604051806101e001604052806040518060400160405280600581526020017f426c61636b00000000000000000000000000000000000000000000000000000081525081526020016040518060400160405280600681526020017f426c75653031000000000000000000000000000000000000000000000000000081525081526020016040518060400160405280600681526020017f426c75653032000000000000000000000000000000000000000000000000000081525081526020016040518060400160405280600681526020017f426c75653033000000000000000000000000000000000000000000000000000081525081526020016040518060400160405280600681526020017f477261793031000000000000000000000000000000000000000000000000000081525081526020016040518060400160405280600681526020017f477261793032000000000000000000000000000000000000000000000000000081525081526020016040518060400160405280600781526020017f486561746865720000000000000000000000000000000000000000000000000081525081526020016040518060400160405280600a81526020017f50617374656c426c75650000000000000000000000000000000000000000000081525081526020016040518060400160405280600b81526020017f50617374656c477265656e00000000000000000000000000000000000000000081525081526020016040518060400160405280600c81526020017f50617374656c4f72616e6765000000000000000000000000000000000000000081525081526020016040518060400160405280600981526020017f50617374656c526564000000000000000000000000000000000000000000000081525081526020016040518060400160405280600c81526020017f50617374656c59656c6c6f77000000000000000000000000000000000000000081525081526020016040518060400160405280600481526020017f50696e6b0000000000000000000000000000000000000000000000000000000081525081526020016040518060400160405280600381526020017f526564000000000000000000000000000000000000000000000000000000000081525081526020016040518060400160405280600581526020017f5768697465000000000000000000000000000000000000000000000000000000815250815250600890600f620016b09291906200269a565b506040518061016001604052806040518060400160405280600381526020017f426174000000000000000000000000000000000000000000000000000000000081525081526020016040518060400160405280600681526020017f43756d626961000000000000000000000000000000000000000000000000000081525081526020016040518060400160405280600481526020017f446565720000000000000000000000000000000000000000000000000000000081525081526020016040518060400160405280600781526020017f4469616d6f6e640000000000000000000000000000000000000000000000000081525081526020016040518060400160405280600481526020017f486f6c610000000000000000000000000000000000000000000000000000000081525081526020016040518060400160405280600581526020017f50697a7a6100000000000000000000000000000000000000000000000000000081525081526020016040518060400160405280600681526020017f526573697374000000000000000000000000000000000000000000000000000081525081526020016040518060400160405280600681526020017f53656c656e61000000000000000000000000000000000000000000000000000081525081526020016040518060400160405280600481526020017f426561720000000000000000000000000000000000000000000000000000000081525081526020016040518060400160405280600c81526020017f536b756c6c4f75746c696e65000000000000000000000000000000000000000081525081526020016040518060400160405280600581526020017f536b756c6c000000000000000000000000000000000000000000000000000000815250815250600990600b6200195692919062002904565b506040518061018001604052806040518060400160405280600981526020017f436f6e6365726e6564000000000000000000000000000000000000000000000081525081526020016040518060400160405280600781526020017f44656661756c740000000000000000000000000000000000000000000000000081525081526020016040518060400160405280600981526020017f44697362656c696566000000000000000000000000000000000000000000000081525081526020016040518060400160405280600681526020017f456174696e67000000000000000000000000000000000000000000000000000081525081526020016040518060400160405280600781526020017f4772696d6163650000000000000000000000000000000000000000000000000081525081526020016040518060400160405280600381526020017f536164000000000000000000000000000000000000000000000000000000000081525081526020016040518060400160405280600a81526020017f53637265616d4f70656e0000000000000000000000000000000000000000000081525081526020016040518060400160405280600781526020017f536572696f75730000000000000000000000000000000000000000000000000081525081526020016040518060400160405280600581526020017f536d696c6500000000000000000000000000000000000000000000000000000081525081526020016040518060400160405280600681526020017f546f6e677565000000000000000000000000000000000000000000000000000081525081526020016040518060400160405280600781526020017f5477696e6b6c650000000000000000000000000000000000000000000000000081525081526020016040518060400160405280600581526020017f566f6d6974000000000000000000000000000000000000000000000000000000815250815250600a90600c62001c3792919062002768565b506040518060e001604052806040518060400160405280600681526020017f54616e6e6564000000000000000000000000000000000000000000000000000081525081526020016040518060400160405280600681526020017f59656c6c6f77000000000000000000000000000000000000000000000000000081525081526020016040518060400160405280600481526020017f50616c650000000000000000000000000000000000000000000000000000000081525081526020016040518060400160405280600581526020017f4c6967687400000000000000000000000000000000000000000000000000000081525081526020016040518060400160405280600581526020017f42726f776e00000000000000000000000000000000000000000000000000000081525081526020016040518060400160405280600981526020017f4461726b42726f776e000000000000000000000000000000000000000000000081525081526020016040518060400160405280600581526020017f426c61636b000000000000000000000000000000000000000000000000000000815250815250600b90600762001df092919062002633565b506040518061046001604052806040518060400160405280600681526020017f4e6f48616972000000000000000000000000000000000000000000000000000081525081526020016040518060400160405280600881526020017f457965706174636800000000000000000000000000000000000000000000000081525081526020016040518060400160405280600381526020017f486174000000000000000000000000000000000000000000000000000000000081525081526020016040518060400160405280600581526020017f48696a616200000000000000000000000000000000000000000000000000000081525081526020016040518060400160405280600681526020017f54757262616e000000000000000000000000000000000000000000000000000081525081526020016040518060400160405280600a81526020017f57696e746572486174310000000000000000000000000000000000000000000081525081526020016040518060400160405280600a81526020017f57696e746572486174320000000000000000000000000000000000000000000081525081526020016040518060400160405280600a81526020017f57696e746572486174330000000000000000000000000000000000000000000081525081526020016040518060400160405280600a81526020017f57696e746572486174340000000000000000000000000000000000000000000081525081526020016040518060400160405280600f81526020017f4c6f6e674861697242696748616972000000000000000000000000000000000081525081526020016040518060400160405280600b81526020017f4c6f6e6748616972426f6200000000000000000000000000000000000000000081525081526020016040518060400160405280600b81526020017f4c6f6e674861697242756e00000000000000000000000000000000000000000081525081526020016040518060400160405280600d81526020017f4c6f6e67486169724375726c790000000000000000000000000000000000000081525081526020016040518060400160405280600d81526020017f4c6f6e674861697243757276790000000000000000000000000000000000000081525081526020016040518060400160405280600e81526020017f4c6f6e674861697244726561647300000000000000000000000000000000000081525081526020016040518060400160405280600d81526020017f4c6f6e674861697246726964610000000000000000000000000000000000000081525081526020016040518060400160405280600b81526020017f4c6f6e674861697246726f00000000000000000000000000000000000000000081525081526020016040518060400160405280600f81526020017f4c6f6e674861697246726f42616e64000000000000000000000000000000000081525081526020016040518060400160405280601281526020017f4c6f6e67486169724e6f74546f6f4c6f6e67000000000000000000000000000081525081526020016040518060400160405280601381526020017f4c6f6e674861697253686176656453696465730000000000000000000000000081525081526020016040518060400160405280601281526020017f4c6f6e67486169724d696157616c6c616365000000000000000000000000000081525081526020016040518060400160405280601081526020017f4c6f6e674861697253747261696768740000000000000000000000000000000081525081526020016040518060400160405280601181526020017f4c6f6e674861697253747261696768743200000000000000000000000000000081525081526020016040518060400160405280601681526020017f4c6f6e67486169725374726169676874537472616e640000000000000000000081525081526020016040518060400160405280601181526020017f53686f727448616972447265616473303100000000000000000000000000000081525081526020016040518060400160405280601181526020017f53686f727448616972447265616473303200000000000000000000000000000081525081526020016040518060400160405280601081526020017f53686f7274486169724672697a7a6c650000000000000000000000000000000081525081526020016040518060400160405280601581526020017f53686f7274486169725368616767794d756c6c6574000000000000000000000081525081526020016040518060400160405280601381526020017f53686f72744861697253686f72744375726c790000000000000000000000000081525081526020016040518060400160405280601281526020017f53686f72744861697253686f7274466c6174000000000000000000000000000081525081526020016040518060400160405280601381526020017f53686f72744861697253686f7274526f756e640000000000000000000000000081525081526020016040518060400160405280601381526020017f53686f72744861697253686f727457617665640000000000000000000000000081525081526020016040518060400160405280600e81526020017f53686f727448616972536964657300000000000000000000000000000000000081525081526020016040518060400160405280601281526020017f53686f727448616972546865436165736172000000000000000000000000000081525081526020016040518060400160405280601a81526020017f53686f7274486169725468654361657361725369646550617274000000000000815250815250600c9060236200261e9291906200296b565b503480156200262c57600080fd5b5062002b55565b82805482825590600052602060002090810192821562002687579160200282015b828111156200268657825182908051906020019062002675929190620029d2565b509160200191906001019062002654565b5b50905062002696919062002a63565b5090565b828054828255906000526020600020908101928215620026ee579160200282015b82811115620026ed578251829080519060200190620026dc929190620029d2565b5091602001919060010190620026bb565b5b509050620026fd919062002a63565b5090565b82805482825590600052602060002090810192821562002755579160200282015b828111156200275457825182908051906020019062002743929190620029d2565b509160200191906001019062002722565b5b50905062002764919062002a63565b5090565b828054828255906000526020600020908101928215620027bc579160200282015b82811115620027bb578251829080519060200190620027aa929190620029d2565b509160200191906001019062002789565b5b509050620027cb919062002a63565b5090565b82805482825590600052602060002090810192821562002823579160200282015b828111156200282257825182908051906020019062002811929190620029d2565b5091602001919060010190620027f0565b5b50905062002832919062002a63565b5090565b8280548282559060005260206000209081019282156200288a579160200282015b828111156200288957825182908051906020019062002878929190620029d2565b509160200191906001019062002857565b5b50905062002899919062002a63565b5090565b828054828255906000526020600020908101928215620028f1579160200282015b82811115620028f0578251829080519060200190620028df929190620029d2565b5091602001919060010190620028be565b5b50905062002900919062002a63565b5090565b82805482825590600052602060002090810192821562002958579160200282015b828111156200295757825182908051906020019062002946929190620029d2565b509160200191906001019062002925565b5b50905062002967919062002a63565b5090565b828054828255906000526020600020908101928215620029bf579160200282015b82811115620029be578251829080519060200190620029ad929190620029d2565b50916020019190600101906200298c565b5b509050620029ce919062002a63565b5090565b828054620029e09062002b1f565b90600052602060002090601f01602090048101928262002a04576000855562002a50565b82601f1062002a1f57805160ff191683800117855562002a50565b8280016001018555821562002a50579182015b8281111562002a4f57825182559160200191906001019062002a32565b5b50905062002a5f919062002a8b565b5090565b5b8082111562002a87576000818162002a7d919062002aaa565b5060010162002a64565b5090565b5b8082111562002aa657600081600090555060010162002a8c565b5090565b50805462002ab89062002b1f565b6000825580601f1062002acc575062002aed565b601f01602090049060005260206000209081019062002aec919062002a8b565b5b50565b7f4e487b7100000000000000000000000000000000000000000000000000000000600052602260045260246000fd5b6000600282049050600182168062002b3857607f821691505b6020821081141562002b4f5762002b4e62002af0565b5b50919050565b61151b8062002b656000396000f3fe608060405234801561001057600080fd5b50600436106100ea5760003560e01c80638602dd6a1161008c578063b70930de11610066578063b70930de146102cf578063c0496cf5146102ff578063cc4e56951461032f578063dac1419e1461035f576100ea565b80638602dd6a1461023f57806388ee2c161461026f578063a2ec3e9e1461029f576100ea565b806360d58aed116100c857806360d58aed1461017f57806373075aff146101af5780637ecaef06146101df57806384425a841461020f576100ea565b8063039984ba146100ef57806318a3c0d11461011f578063425d784f1461014f575b600080fd5b61010960048036038101906101049190610f37565b61038f565b6040516101169190610ffd565b60405180910390f35b61013960048036038101906101349190610f37565b610461565b6040516101469190610ffd565b60405180910390f35b61016960048036038101906101649190610f37565b610533565b6040516101769190610ffd565b60405180910390f35b61019960048036038101906101949190610f37565b610605565b6040516101a69190610ffd565b60405180910390f35b6101c960048036038101906101c49190610f37565b6106d7565b6040516101d69190610ffd565b60405180910390f35b6101f960048036038101906101f49190610f37565b6107a9565b6040516102069190610ffd565b60405180910390f35b61022960048036038101906102249190610f37565b61087b565b6040516102369190610ffd565b60405180910390f35b61025960048036038101906102549190610f37565b61094d565b6040516102669190610ffd565b60405180910390f35b6102896004803603810190610284919061107d565b610a1f565b60405161029691906110cc565b60405180910390f35b6102b960048036038101906102b49190610f37565b610a85565b6040516102c69190610ffd565b60405180910390f35b6102e960048036038101906102e49190610f37565b610b57565b6040516102f69190610ffd565b60405180910390f35b61031960048036038101906103149190610f37565b610c29565b6040516103269190610ffd565b60405180910390f35b61034960048036038101906103449190610f37565b610cfb565b6040516103569190610ffd565b60405180910390f35b61037960048036038101906103749190610f37565b610dcd565b6040516103869190610ffd565b60405180910390f35b6060600061039e836008610e9f565b9050600480805490508260ff166103b59190611116565b815481106103c6576103c5611147565b5b9060005260206000200180546103db906111a5565b80601f0160208091040260200160405190810160405280929190818152602001828054610407906111a5565b80156104545780601f1061042957610100808354040283529160200191610454565b820191906000526020600020905b81548152906001019060200180831161043757829003601f168201915b5050505050915050919050565b60606000610470836004610e9f565b9050600280805490508260ff166104879190611116565b8154811061049857610497611147565b5b9060005260206000200180546104ad906111a5565b80601f01602080910402602001604051908101604052809291908181526020018280546104d9906111a5565b80156105265780601f106104fb57610100808354040283529160200191610526565b820191906000526020600020905b81548152906001019060200180831161050957829003601f168201915b5050505050915050919050565b60606000610542836014610e9f565b9050600a80805490508260ff166105599190611116565b8154811061056a57610569611147565b5b90600052602060002001805461057f906111a5565b80601f01602080910402602001604051908101604052809291908181526020018280546105ab906111a5565b80156105f85780601f106105cd576101008083540402835291602001916105f8565b820191906000526020600020905b8154815290600101906020018083116105db57829003601f168201915b5050505050915050919050565b60606000610614836018610e9f565b9050600c80805490508260ff1661062b9190611116565b8154811061063c5761063b611147565b5b906000526020600020018054610651906111a5565b80601f016020809104026020016040519081016040528092919081815260200182805461067d906111a5565b80156106ca5780601f1061069f576101008083540402835291602001916106ca565b820191906000526020600020905b8154815290600101906020018083116106ad57829003601f168201915b5050505050915050919050565b606060006106e6836016610e9f565b9050600b80805490508260ff166106fd9190611116565b8154811061070e5761070d611147565b5b906000526020600020018054610723906111a5565b80601f016020809104026020016040519081016040528092919081815260200182805461074f906111a5565b801561079c5780601f106107715761010080835404028352916020019161079c565b820191906000526020600020905b81548152906001019060200180831161077f57829003601f168201915b5050505050915050919050565b606060006107b8836000610e9f565b9050600080805490508260ff166107cf9190611116565b815481106107e0576107df611147565b5b9060005260206000200180546107f5906111a5565b80601f0160208091040260200160405190810160405280929190818152602001828054610821906111a5565b801561086e5780601f106108435761010080835404028352916020019161086e565b820191906000526020600020905b81548152906001019060200180831161085157829003601f168201915b5050505050915050919050565b6060600061088a836006610e9f565b9050600380805490508260ff166108a19190611116565b815481106108b2576108b1611147565b5b9060005260206000200180546108c7906111a5565b80601f01602080910402602001604051908101604052809291908181526020018280546108f3906111a5565b80156109405780601f1061091557610100808354040283529160200191610940565b820191906000526020600020905b81548152906001019060200180831161092357829003601f168201915b5050505050915050919050565b6060600061095c836012610e9f565b9050600980805490508260ff166109739190611116565b8154811061098457610983611147565b5b906000526020600020018054610999906111a5565b80601f01602080910402602001604051908101604052809291908181526020018280546109c5906111a5565b8015610a125780601f106109e757610100808354040283529160200191610a12565b820191906000526020600020905b8154815290600101906020018083116109f557829003601f168201915b5050505050915050919050565b6000808273ffffffffffffffffffffffffffffffffffffffff1684610a449190611206565b9050600081604051602001610a59919061127d565b60405160208183030381529060405290506000818051906020012090508060001c935050505092915050565b60606000610a94836010610e9f565b9050600880805490508260ff16610aab9190611116565b81548110610abc57610abb611147565b5b906000526020600020018054610ad1906111a5565b80601f0160208091040260200160405190810160405280929190818152602001828054610afd906111a5565b8015610b4a5780601f10610b1f57610100808354040283529160200191610b4a565b820191906000526020600020905b815481529060010190602001808311610b2d57829003601f168201915b5050505050915050919050565b60606000610b6683600e610e9f565b9050600780805490508260ff16610b7d9190611116565b81548110610b8e57610b8d611147565b5b906000526020600020018054610ba3906111a5565b80601f0160208091040260200160405190810160405280929190818152602001828054610bcf906111a5565b8015610c1c5780601f10610bf157610100808354040283529160200191610c1c565b820191906000526020600020905b815481529060010190602001808311610bff57829003601f168201915b5050505050915050919050565b60606000610c38836002610e9f565b9050600180805490508260ff16610c4f9190611116565b81548110610c6057610c5f611147565b5b906000526020600020018054610c75906111a5565b80601f0160208091040260200160405190810160405280929190818152602001828054610ca1906111a5565b8015610cee5780601f10610cc357610100808354040283529160200191610cee565b820191906000526020600020905b815481529060010190602001808311610cd157829003601f168201915b5050505050915050919050565b60606000610d0a83600a610e9f565b9050600580805490508260ff16610d219190611116565b81548110610d3257610d31611147565b5b906000526020600020018054610d47906111a5565b80601f0160208091040260200160405190810160405280929190818152602001828054610d73906111a5565b8015610dc05780601f10610d9557610100808354040283529160200191610dc0565b820191906000526020600020905b815481529060010190602001808311610da357829003601f168201915b5050505050915050919050565b60606000610ddc83600c610e9f565b9050600680805490508260ff16610df39190611116565b81548110610e0457610e03611147565b5b906000526020600020018054610e19906111a5565b80601f0160208091040260200160405190810160405280929190818152602001828054610e45906111a5565b8015610e925780601f10610e6757610100808354040283529160200191610e92565b820191906000526020600020905b815481529060010190602001808311610e7557829003601f168201915b5050505050915050919050565b600081600a610eae91906113d8565b6001610eba9190611423565b600283610ec7919061147d565b600a610ed391906113d8565b6001610edf9190611423565b84610eea9190611116565b610ef491906114b4565b905092915050565b600080fd5b6000819050919050565b610f1481610f01565b8114610f1f57600080fd5b50565b600081359050610f3181610f0b565b92915050565b600060208284031215610f4d57610f4c610efc565b5b6000610f5b84828501610f22565b91505092915050565b600081519050919050565b600082825260208201905092915050565b60005b83811015610f9e578082015181840152602081019050610f83565b83811115610fad576000848401525b50505050565b6000601f19601f8301169050919050565b6000610fcf82610f64565b610fd98185610f6f565b9350610fe9818560208601610f80565b610ff281610fb3565b840191505092915050565b600060208201905081810360008301526110178184610fc4565b905092915050565b600073ffffffffffffffffffffffffffffffffffffffff82169050919050565b600061104a8261101f565b9050919050565b61105a8161103f565b811461106557600080fd5b50565b60008135905061107781611051565b92915050565b6000806040838503121561109457611093610efc565b5b60006110a285828601610f22565b92505060206110b385828601611068565b9150509250929050565b6110c681610f01565b82525050565b60006020820190506110e160008301846110bd565b92915050565b7f4e487b7100000000000000000000000000000000000000000000000000000000600052601260045260246000fd5b600061112182610f01565b915061112c83610f01565b92508261113c5761113b6110e7565b5b828206905092915050565b7f4e487b7100000000000000000000000000000000000000000000000000000000600052603260045260246000fd5b7f4e487b7100000000000000000000000000000000000000000000000000000000600052602260045260246000fd5b600060028204905060018216806111bd57607f821691505b602082108114156111d1576111d0611176565b5b50919050565b7f4e487b7100000000000000000000000000000000000000000000000000000000600052601160045260246000fd5b600061121182610f01565b915061121c83610f01565b9250827fffffffffffffffffffffffffffffffffffffffffffffffffffffffffffffffff03821115611251576112506111d7565b5b828201905092915050565b6000819050919050565b61127761127282610f01565b61125c565b82525050565b60006112898284611266565b60208201915081905092915050565b60008160011c9050919050565b6000808291508390505b60018511156112ef578086048111156112cb576112ca6111d7565b5b60018516156112da5780820291505b80810290506112e885611298565b94506112af565b94509492505050565b60008261130857600190506113c4565b8161131657600090506113c4565b816001811461132c576002811461133657611365565b60019150506113c4565b60ff841115611348576113476111d7565b5b8360020a91508482111561135f5761135e6111d7565b5b506113c4565b5060208310610133831016604e8410600b841016171561139a5782820a905083811115611395576113946111d7565b5b6113c4565b6113a784848460016112a5565b925090508184048111156113be576113bd6111d7565b5b81810290505b9392505050565b600060ff82169050919050565b60006113e382610f01565b91506113ee836113cb565b925061141b7fffffffffffffffffffffffffffffffffffffffffffffffffffffffffffffffff84846112f8565b905092915050565b600061142e82610f01565b915061143983610f01565b9250817fffffffffffffffffffffffffffffffffffffffffffffffffffffffffffffffff0483118215151615611472576114716111d7565b5b828202905092915050565b6000611488826113cb565b9150611493836113cb565b92508260ff038211156114a9576114a86111d7565b5b828201905092915050565b60006114bf82610f01565b91506114ca83610f01565b9250826114da576114d96110e7565b5b82820490509291505056fea26469706673582212208d5d685b363ea93d899d17a370b20d685d445d8be14ecd2cc18160a4e312a38764736f6c63430008090033",
  "linkReferences": {},
  "deployedLinkReferences": {}
}