{
  "_format": "hh-sol-artifact-1",
  "contractName": "PlatziPunks",
  "sourceName": "contracts/PlatziPunks.sol",
  "abi": [
    {
      "inputs": [
        {
          "internalType": "uint256",
          "name": "_maxSupply",
          "type": "uint256"
        }
      ],
      "stateMutability": "nonpayable",
      "type": "constructor"
    },
    {
      "anonymous": false,
      "inputs": [
        {
          "indexed": true,
          "internalType": "address",
          "name": "owner",
          "type": "address"
        },
        {
          "indexed": true,
          "internalType": "address",
          "name": "approved",
          "type": "address"
        },
        {
          "indexed": true,
          "internalType": "uint256",
          "name": "tokenId",
          "type": "uint256"
        }
      ],
      "name": "Approval",
      "type": "event"
    },
    {
      "anonymous": false,
      "inputs": [
        {
          "indexed": true,
          "internalType": "address",
          "name": "owner",
          "type": "address"
        },
        {
          "indexed": true,
          "internalType": "address",
          "name": "operator",
          "type": "address"
        },
        {
          "indexed": false,
          "internalType": "bool",
          "name": "approved",
          "type": "bool"
        }
      ],
      "name": "ApprovalForAll",
      "type": "event"
    },
    {
      "anonymous": false,
      "inputs": [
        {
          "indexed": true,
          "internalType": "address",
          "name": "from",
          "type": "address"
        },
        {
          "indexed": true,
          "internalType": "address",
          "name": "to",
          "type": "address"
        },
        {
          "indexed": true,
          "internalType": "uint256",
          "name": "tokenId",
          "type": "uint256"
        }
      ],
      "name": "Transfer",
      "type": "event"
    },
    {
      "inputs": [
        {
          "internalType": "address",
          "name": "to",
          "type": "address"
        },
        {
          "internalType": "uint256",
          "name": "tokenId",
          "type": "uint256"
        }
      ],
      "name": "approve",
      "outputs": [],
      "stateMutability": "nonpayable",
      "type": "function"
    },
    {
      "inputs": [
        {
          "internalType": "address",
          "name": "owner",
          "type": "address"
        }
      ],
      "name": "balanceOf",
      "outputs": [
        {
          "internalType": "uint256",
          "name": "",
          "type": "uint256"
        }
      ],
      "stateMutability": "view",
      "type": "function"
    },
    {
      "inputs": [
        {
          "internalType": "uint256",
          "name": "_tokenId",
          "type": "uint256"
        },
        {
          "internalType": "address",
          "name": "_minter",
          "type": "address"
        }
      ],
      "name": "deterministicPseudoRandomDNA",
      "outputs": [
        {
          "internalType": "uint256",
          "name": "",
          "type": "uint256"
        }
      ],
      "stateMutability": "pure",
      "type": "function"
    },
    {
      "inputs": [
        {
          "internalType": "uint256",
          "name": "_dna",
          "type": "uint256"
        }
      ],
      "name": "getAccessoriesType",
      "outputs": [
        {
          "internalType": "string",
          "name": "",
          "type": "string"
        }
      ],
      "stateMutability": "view",
      "type": "function"
    },
    {
      "inputs": [
        {
          "internalType": "uint256",
          "name": "tokenId",
          "type": "uint256"
        }
      ],
      "name": "getApproved",
      "outputs": [
        {
          "internalType": "address",
          "name": "",
          "type": "address"
        }
      ],
      "stateMutability": "view",
      "type": "function"
    },
    {
      "inputs": [
        {
          "internalType": "uint256",
          "name": "_dna",
          "type": "uint256"
        }
      ],
      "name": "getClotheColor",
      "outputs": [
        {
          "internalType": "string",
          "name": "",
          "type": "string"
        }
      ],
      "stateMutability": "view",
      "type": "function"
    },
    {
      "inputs": [
        {
          "internalType": "uint256",
          "name": "_dna",
          "type": "uint256"
        }
      ],
      "name": "getClotheType",
      "outputs": [
        {
          "internalType": "string",
          "name": "",
          "type": "string"
        }
      ],
      "stateMutability": "view",
      "type": "function"
    },
    {
      "inputs": [
        {
          "internalType": "uint256",
          "name": "_dna",
          "type": "uint256"
        }
      ],
      "name": "getEyeBrowType",
      "outputs": [
        {
          "internalType": "string",
          "name": "",
          "type": "string"
        }
      ],
      "stateMutability": "view",
      "type": "function"
    },
    {
      "inputs": [
        {
          "internalType": "uint256",
          "name": "_dna",
          "type": "uint256"
        }
      ],
      "name": "getEyeType",
      "outputs": [
        {
          "internalType": "string",
          "name": "",
          "type": "string"
        }
      ],
      "stateMutability": "view",
      "type": "function"
    },
    {
      "inputs": [
        {
          "internalType": "uint256",
          "name": "_dna",
          "type": "uint256"
        }
      ],
      "name": "getFacialHairColor",
      "outputs": [
        {
          "internalType": "string",
          "name": "",
          "type": "string"
        }
      ],
      "stateMutability": "view",
      "type": "function"
    },
    {
      "inputs": [
        {
          "internalType": "uint256",
          "name": "_dna",
          "type": "uint256"
        }
      ],
      "name": "getFacialHairType",
      "outputs": [
        {
          "internalType": "string",
          "name": "",
          "type": "string"
        }
      ],
      "stateMutability": "view",
      "type": "function"
    },
    {
      "inputs": [
        {
          "internalType": "uint256",
          "name": "_dna",
          "type": "uint256"
        }
      ],
      "name": "getGraphicType",
      "outputs": [
        {
          "internalType": "string",
          "name": "",
          "type": "string"
        }
      ],
      "stateMutability": "view",
      "type": "function"
    },
    {
      "inputs": [
        {
          "internalType": "uint256",
          "name": "_dna",
          "type": "uint256"
        }
      ],
      "name": "getHairColor",
      "outputs": [
        {
          "internalType": "string",
          "name": "",
          "type": "string"
        }
      ],
      "stateMutability": "view",
      "type": "function"
    },
    {
      "inputs": [
        {
          "internalType": "uint256",
          "name": "_dna",
          "type": "uint256"
        }
      ],
      "name": "getHatColor",
      "outputs": [
        {
          "internalType": "string",
          "name": "",
          "type": "string"
        }
      ],
      "stateMutability": "view",
      "type": "function"
    },
    {
      "inputs": [
        {
          "internalType": "uint256",
          "name": "_dna",
          "type": "uint256"
        }
      ],
      "name": "getMouthType",
      "outputs": [
        {
          "internalType": "string",
          "name": "",
          "type": "string"
        }
      ],
      "stateMutability": "view",
      "type": "function"
    },
    {
      "inputs": [
        {
          "internalType": "uint256",
          "name": "_dna",
          "type": "uint256"
        }
      ],
      "name": "getSkinColor",
      "outputs": [
        {
          "internalType": "string",
          "name": "",
          "type": "string"
        }
      ],
      "stateMutability": "view",
      "type": "function"
    },
    {
      "inputs": [
        {
          "internalType": "uint256",
          "name": "_dna",
          "type": "uint256"
        }
      ],
      "name": "getTopType",
      "outputs": [
        {
          "internalType": "string",
          "name": "",
          "type": "string"
        }
      ],
      "stateMutability": "view",
      "type": "function"
    },
    {
      "inputs": [
        {
          "internalType": "uint256",
          "name": "_dna",
          "type": "uint256"
        }
      ],
      "name": "imageByDNA",
      "outputs": [
        {
          "internalType": "string",
          "name": "",
          "type": "string"
        }
      ],
      "stateMutability": "view",
      "type": "function"
    },
    {
      "inputs": [
        {
          "internalType": "address",
          "name": "owner",
          "type": "address"
        },
        {
          "internalType": "address",
          "name": "operator",
          "type": "address"
        }
      ],
      "name": "isApprovedForAll",
      "outputs": [
        {
          "internalType": "bool",
          "name": "",
          "type": "bool"
        }
      ],
      "stateMutability": "view",
      "type": "function"
    },
    {
      "inputs": [],
      "name": "maxSupply",
      "outputs": [
        {
          "internalType": "uint256",
          "name": "",
          "type": "uint256"
        }
      ],
      "stateMutability": "view",
      "type": "function"
    },
    {
      "inputs": [],
      "name": "mint",
      "outputs": [],
      "stateMutability": "nonpayable",
      "type": "function"
    },
    {
      "inputs": [],
      "name": "name",
      "outputs": [
        {
          "internalType": "string",
          "name": "",
          "type": "string"
        }
      ],
      "stateMutability": "view",
      "type": "function"
    },
    {
      "inputs": [
        {
          "internalType": "uint256",
          "name": "tokenId",
          "type": "uint256"
        }
      ],
      "name": "ownerOf",
      "outputs": [
        {
          "internalType": "address",
          "name": "",
          "type": "address"
        }
      ],
      "stateMutability": "view",
      "type": "function"
    },
    {
      "inputs": [
        {
          "internalType": "address",
          "name": "from",
          "type": "address"
        },
        {
          "internalType": "address",
          "name": "to",
          "type": "address"
        },
        {
          "internalType": "uint256",
          "name": "tokenId",
          "type": "uint256"
        }
      ],
      "name": "safeTransferFrom",
      "outputs": [],
      "stateMutability": "nonpayable",
      "type": "function"
    },
    {
      "inputs": [
        {
          "internalType": "address",
          "name": "from",
          "type": "address"
        },
        {
          "internalType": "address",
          "name": "to",
          "type": "address"
        },
        {
          "internalType": "uint256",
          "name": "tokenId",
          "type": "uint256"
        },
        {
          "internalType": "bytes",
          "name": "data",
          "type": "bytes"
        }
      ],
      "name": "safeTransferFrom",
      "outputs": [],
      "stateMutability": "nonpayable",
      "type": "function"
    },
    {
      "inputs": [
        {
          "internalType": "address",
          "name": "operator",
          "type": "address"
        },
        {
          "internalType": "bool",
          "name": "approved",
          "type": "bool"
        }
      ],
      "name": "setApprovalForAll",
      "outputs": [],
      "stateMutability": "nonpayable",
      "type": "function"
    },
    {
      "inputs": [
        {
          "internalType": "bytes4",
          "name": "interfaceId",
          "type": "bytes4"
        }
      ],
      "name": "supportsInterface",
      "outputs": [
        {
          "internalType": "bool",
          "name": "",
          "type": "bool"
        }
      ],
      "stateMutability": "view",
      "type": "function"
    },
    {
      "inputs": [],
      "name": "symbol",
      "outputs": [
        {
          "internalType": "string",
          "name": "",
          "type": "string"
        }
      ],
      "stateMutability": "view",
      "type": "function"
    },
    {
      "inputs": [
        {
          "internalType": "uint256",
          "name": "index",
          "type": "uint256"
        }
      ],
      "name": "tokenByIndex",
      "outputs": [
        {
          "internalType": "uint256",
          "name": "",
          "type": "uint256"
        }
      ],
      "stateMutability": "view",
      "type": "function"
    },
    {
      "inputs": [
        {
          "internalType": "uint256",
          "name": "",
          "type": "uint256"
        }
      ],
      "name": "tokenDNA",
      "outputs": [
        {
          "internalType": "uint256",
          "name": "",
          "type": "uint256"
        }
      ],
      "stateMutability": "view",
      "type": "function"
    },
    {
      "inputs": [
        {
          "internalType": "address",
          "name": "owner",
          "type": "address"
        },
        {
          "internalType": "uint256",
          "name": "index",
          "type": "uint256"
        }
      ],
      "name": "tokenOfOwnerByIndex",
      "outputs": [
        {
          "internalType": "uint256",
          "name": "",
          "type": "uint256"
        }
      ],
      "stateMutability": "view",
      "type": "function"
    },
    {
      "inputs": [
        {
          "internalType": "uint256",
          "name": "tokenId",
          "type": "uint256"
        }
      ],
      "name": "tokenURI",
      "outputs": [
        {
          "internalType": "string",
          "name": "",
          "type": "string"
        }
      ],
      "stateMutability": "view",
      "type": "function"
    },
    {
      "inputs": [],
      "name": "totalSupply",
      "outputs": [
        {
          "internalType": "uint256",
          "name": "",
          "type": "uint256"
        }
      ],
      "stateMutability": "view",
      "type": "function"
    },
    {
      "inputs": [
        {
          "internalType": "address",
          "name": "from",
          "type": "address"
        },
        {
          "internalType": "address",
          "name": "to",
          "type": "address"
        },
        {
          "internalType": "uint256",
          "name": "tokenId",
          "type": "uint256"
        }
      ],
      "name": "transferFrom",
      "outputs": [],
      "stateMutability": "nonpayable",
      "type": "function"
    }
  ],
  "bytecode": "0x60806040526040518060e001604052806040518060400160405280600581526020017f426c616e6b00000000000000000000000000000000000000000000000000000081525081526020016040518060400160405280600481526020017f4b7572740000000000000000000000000000000000000000000000000000000081525081526020016040518060400160405280600e81526020017f507265736372697074696f6e303100000000000000000000000000000000000081525081526020016040518060400160405280600e81526020017f507265736372697074696f6e303200000000000000000000000000000000000081525081526020016040518060400160405280600581526020017f526f756e6400000000000000000000000000000000000000000000000000000081525081526020016040518060400160405280600a81526020017f53756e676c61737365730000000000000000000000000000000000000000000081525081526020016040518060400160405280600981526020017f5761796661726572730000000000000000000000000000000000000000000000815250815250600a906007620001bc92919062002700565b50604051806101e001604052806040518060400160405280600581526020017f426c61636b00000000000000000000000000000000000000000000000000000081525081526020016040518060400160405280600681526020017f426c75653031000000000000000000000000000000000000000000000000000081525081526020016040518060400160405280600681526020017f426c75653032000000000000000000000000000000000000000000000000000081525081526020016040518060400160405280600681526020017f426c75653033000000000000000000000000000000000000000000000000000081525081526020016040518060400160405280600681526020017f477261793031000000000000000000000000000000000000000000000000000081525081526020016040518060400160405280600681526020017f477261793032000000000000000000000000000000000000000000000000000081525081526020016040518060400160405280600781526020017f486561746865720000000000000000000000000000000000000000000000000081525081526020016040518060400160405280600a81526020017f50617374656c426c75650000000000000000000000000000000000000000000081525081526020016040518060400160405280600b81526020017f50617374656c477265656e00000000000000000000000000000000000000000081525081526020016040518060400160405280600c81526020017f50617374656c4f72616e6765000000000000000000000000000000000000000081525081526020016040518060400160405280600981526020017f50617374656c526564000000000000000000000000000000000000000000000081525081526020016040518060400160405280600c81526020017f50617374656c59656c6c6f77000000000000000000000000000000000000000081525081526020016040518060400160405280600481526020017f50696e6b0000000000000000000000000000000000000000000000000000000081525081526020016040518060400160405280600381526020017f526564000000000000000000000000000000000000000000000000000000000081525081526020016040518060400160405280600581526020017f5768697465000000000000000000000000000000000000000000000000000000815250815250600b90600f6200054e92919062002767565b506040518061012001604052806040518060400160405280600b81526020017f426c617a6572536869727400000000000000000000000000000000000000000081525081526020016040518060400160405280600d81526020017f426c617a6572537765617465720000000000000000000000000000000000000081525081526020016040518060400160405280600d81526020017f436f6c6c6172537765617465720000000000000000000000000000000000000081525081526020016040518060400160405280600c81526020017f477261706869635368697274000000000000000000000000000000000000000081525081526020016040518060400160405280600681526020017f486f6f646965000000000000000000000000000000000000000000000000000081525081526020016040518060400160405280600781526020017f4f766572616c6c0000000000000000000000000000000000000000000000000081525081526020016040518060400160405280600d81526020017f5368697274437265774e65636b0000000000000000000000000000000000000081525081526020016040518060400160405280600e81526020017f536869727453636f6f704e65636b00000000000000000000000000000000000081525081526020016040518060400160405280600a81526020017f5368697274564e65636b00000000000000000000000000000000000000000000815250815250600c9060096200077e929190620027ce565b506040518061018001604052806040518060400160405280600581526020017f436c6f736500000000000000000000000000000000000000000000000000000081525081526020016040518060400160405280600381526020017f437279000000000000000000000000000000000000000000000000000000000081525081526020016040518060400160405280600781526020017f44656661756c740000000000000000000000000000000000000000000000000081525081526020016040518060400160405280600581526020017f44697a7a7900000000000000000000000000000000000000000000000000000081525081526020016040518060400160405280600781526020017f457965526f6c6c0000000000000000000000000000000000000000000000000081525081526020016040518060400160405280600581526020017f486170707900000000000000000000000000000000000000000000000000000081525081526020016040518060400160405280600681526020017f486561727473000000000000000000000000000000000000000000000000000081525081526020016040518060400160405280600481526020017f536964650000000000000000000000000000000000000000000000000000000081525081526020016040518060400160405280600681526020017f537175696e74000000000000000000000000000000000000000000000000000081525081526020016040518060400160405280600981526020017f537572707269736564000000000000000000000000000000000000000000000081525081526020016040518060400160405280600481526020017f57696e6b0000000000000000000000000000000000000000000000000000000081525081526020016040518060400160405280600981526020017f57696e6b5761636b790000000000000000000000000000000000000000000000815250815250600d90600c62000a5f92919062002835565b506040518061018001604052806040518060400160405280600581526020017f416e67727900000000000000000000000000000000000000000000000000000081525081526020016040518060400160405280600c81526020017f416e6772794e61747572616c000000000000000000000000000000000000000081525081526020016040518060400160405280600781526020017f44656661756c740000000000000000000000000000000000000000000000000081525081526020016040518060400160405280600e81526020017f44656661756c744e61747572616c00000000000000000000000000000000000081525081526020016040518060400160405280600b81526020017f466c61744e61747572616c00000000000000000000000000000000000000000081525081526020016040518060400160405280600d81526020017f526169736564457863697465640000000000000000000000000000000000000081525081526020016040518060400160405280601481526020017f526169736564457863697465644e61747572616c00000000000000000000000081525081526020016040518060400160405280600c81526020017f536164436f6e6365726e6564000000000000000000000000000000000000000081525081526020016040518060400160405280601381526020017f536164436f6e6365726e65644e61747572616c0000000000000000000000000081525081526020016040518060400160405280600e81526020017f556e6962726f774e61747572616c00000000000000000000000000000000000081525081526020016040518060400160405280600681526020017f5570446f776e000000000000000000000000000000000000000000000000000081525081526020016040518060400160405280600d81526020017f5570446f776e4e61747572616c00000000000000000000000000000000000000815250815250600e90600c62000d4092919062002835565b506040518061010001604052806040518060400160405280600681526020017f41756275726e000000000000000000000000000000000000000000000000000081525081526020016040518060400160405280600581526020017f426c61636b00000000000000000000000000000000000000000000000000000081525081526020016040518060400160405280600681526020017f426c6f6e6465000000000000000000000000000000000000000000000000000081525081526020016040518060400160405280600c81526020017f426c6f6e6465476f6c64656e000000000000000000000000000000000000000081525081526020016040518060400160405280600581526020017f42726f776e00000000000000000000000000000000000000000000000000000081525081526020016040518060400160405280600981526020017f42726f776e4461726b000000000000000000000000000000000000000000000081525081526020016040518060400160405280600881526020017f506c6174696e756d00000000000000000000000000000000000000000000000081525081526020016040518060400160405280600381526020017f5265640000000000000000000000000000000000000000000000000000000000815250815250600f90600862000f359291906200289c565b506040518060c001604052806040518060400160405280600581526020017f426c616e6b00000000000000000000000000000000000000000000000000000081525081526020016040518060400160405280600b81526020017f42656172644d656469756d00000000000000000000000000000000000000000081525081526020016040518060400160405280600a81526020017f42656172644c696768740000000000000000000000000000000000000000000081525081526020016040518060400160405280600d81526020017f42656172644d616765737469630000000000000000000000000000000000000081525081526020016040518060400160405280600e81526020017f4d6f7573746163686546616e637900000000000000000000000000000000000081525081526020016040518060400160405280600f81526020017f4d6f757374616368654d61676e756d00000000000000000000000000000000008152508152506010906006620010b392919062002903565b506040518061014001604052806040518060400160405280600681526020017f41756275726e000000000000000000000000000000000000000000000000000081525081526020016040518060400160405280600581526020017f426c61636b00000000000000000000000000000000000000000000000000000081525081526020016040518060400160405280600681526020017f426c6f6e6465000000000000000000000000000000000000000000000000000081525081526020016040518060400160405280600c81526020017f426c6f6e6465476f6c64656e000000000000000000000000000000000000000081525081526020016040518060400160405280600581526020017f42726f776e00000000000000000000000000000000000000000000000000000081525081526020016040518060400160405280600981526020017f42726f776e4461726b000000000000000000000000000000000000000000000081525081526020016040518060400160405280600a81526020017f50617374656c50696e6b0000000000000000000000000000000000000000000081525081526020016040518060400160405280600881526020017f506c6174696e756d00000000000000000000000000000000000000000000000081525081526020016040518060400160405280600381526020017f526564000000000000000000000000000000000000000000000000000000000081525081526020016040518060400160405280600a81526020017f53696c7665724772617900000000000000000000000000000000000000000000815250815250601190600a6200131e9291906200296a565b50604051806101e001604052806040518060400160405280600581526020017f426c61636b00000000000000000000000000000000000000000000000000000081525081526020016040518060400160405280600681526020017f426c75653031000000000000000000000000000000000000000000000000000081525081526020016040518060400160405280600681526020017f426c75653032000000000000000000000000000000000000000000000000000081525081526020016040518060400160405280600681526020017f426c75653033000000000000000000000000000000000000000000000000000081525081526020016040518060400160405280600681526020017f477261793031000000000000000000000000000000000000000000000000000081525081526020016040518060400160405280600681526020017f477261793032000000000000000000000000000000000000000000000000000081525081526020016040518060400160405280600781526020017f486561746865720000000000000000000000000000000000000000000000000081525081526020016040518060400160405280600a81526020017f50617374656c426c75650000000000000000000000000000000000000000000081525081526020016040518060400160405280600b81526020017f50617374656c477265656e00000000000000000000000000000000000000000081525081526020016040518060400160405280600c81526020017f50617374656c4f72616e6765000000000000000000000000000000000000000081525081526020016040518060400160405280600981526020017f50617374656c526564000000000000000000000000000000000000000000000081525081526020016040518060400160405280600c81526020017f50617374656c59656c6c6f77000000000000000000000000000000000000000081525081526020016040518060400160405280600481526020017f50696e6b0000000000000000000000000000000000000000000000000000000081525081526020016040518060400160405280600381526020017f526564000000000000000000000000000000000000000000000000000000000081525081526020016040518060400160405280600581526020017f5768697465000000000000000000000000000000000000000000000000000000815250815250601290600f620016b092919062002767565b506040518061016001604052806040518060400160405280600381526020017f426174000000000000000000000000000000000000000000000000000000000081525081526020016040518060400160405280600681526020017f43756d626961000000000000000000000000000000000000000000000000000081525081526020016040518060400160405280600481526020017f446565720000000000000000000000000000000000000000000000000000000081525081526020016040518060400160405280600781526020017f4469616d6f6e640000000000000000000000000000000000000000000000000081525081526020016040518060400160405280600481526020017f486f6c610000000000000000000000000000000000000000000000000000000081525081526020016040518060400160405280600581526020017f50697a7a6100000000000000000000000000000000000000000000000000000081525081526020016040518060400160405280600681526020017f526573697374000000000000000000000000000000000000000000000000000081525081526020016040518060400160405280600681526020017f53656c656e61000000000000000000000000000000000000000000000000000081525081526020016040518060400160405280600481526020017f426561720000000000000000000000000000000000000000000000000000000081525081526020016040518060400160405280600c81526020017f536b756c6c4f75746c696e65000000000000000000000000000000000000000081525081526020016040518060400160405280600581526020017f536b756c6c000000000000000000000000000000000000000000000000000000815250815250601390600b62001956929190620029d1565b506040518061018001604052806040518060400160405280600981526020017f436f6e6365726e6564000000000000000000000000000000000000000000000081525081526020016040518060400160405280600781526020017f44656661756c740000000000000000000000000000000000000000000000000081525081526020016040518060400160405280600981526020017f44697362656c696566000000000000000000000000000000000000000000000081525081526020016040518060400160405280600681526020017f456174696e67000000000000000000000000000000000000000000000000000081525081526020016040518060400160405280600781526020017f4772696d6163650000000000000000000000000000000000000000000000000081525081526020016040518060400160405280600381526020017f536164000000000000000000000000000000000000000000000000000000000081525081526020016040518060400160405280600a81526020017f53637265616d4f70656e0000000000000000000000000000000000000000000081525081526020016040518060400160405280600781526020017f536572696f75730000000000000000000000000000000000000000000000000081525081526020016040518060400160405280600581526020017f536d696c6500000000000000000000000000000000000000000000000000000081525081526020016040518060400160405280600681526020017f546f6e677565000000000000000000000000000000000000000000000000000081525081526020016040518060400160405280600781526020017f5477696e6b6c650000000000000000000000000000000000000000000000000081525081526020016040518060400160405280600581526020017f566f6d6974000000000000000000000000000000000000000000000000000000815250815250601490600c62001c3792919062002835565b506040518060e001604052806040518060400160405280600681526020017f54616e6e6564000000000000000000000000000000000000000000000000000081525081526020016040518060400160405280600681526020017f59656c6c6f77000000000000000000000000000000000000000000000000000081525081526020016040518060400160405280600481526020017f50616c650000000000000000000000000000000000000000000000000000000081525081526020016040518060400160405280600581526020017f4c6967687400000000000000000000000000000000000000000000000000000081525081526020016040518060400160405280600581526020017f42726f776e00000000000000000000000000000000000000000000000000000081525081526020016040518060400160405280600981526020017f4461726b42726f776e000000000000000000000000000000000000000000000081525081526020016040518060400160405280600581526020017f426c61636b000000000000000000000000000000000000000000000000000000815250815250601590600762001df092919062002700565b506040518061046001604052806040518060400160405280600681526020017f4e6f48616972000000000000000000000000000000000000000000000000000081525081526020016040518060400160405280600881526020017f457965706174636800000000000000000000000000000000000000000000000081525081526020016040518060400160405280600381526020017f486174000000000000000000000000000000000000000000000000000000000081525081526020016040518060400160405280600581526020017f48696a616200000000000000000000000000000000000000000000000000000081525081526020016040518060400160405280600681526020017f54757262616e000000000000000000000000000000000000000000000000000081525081526020016040518060400160405280600a81526020017f57696e746572486174310000000000000000000000000000000000000000000081525081526020016040518060400160405280600a81526020017f57696e746572486174320000000000000000000000000000000000000000000081525081526020016040518060400160405280600a81526020017f57696e746572486174330000000000000000000000000000000000000000000081525081526020016040518060400160405280600a81526020017f57696e746572486174340000000000000000000000000000000000000000000081525081526020016040518060400160405280600f81526020017f4c6f6e674861697242696748616972000000000000000000000000000000000081525081526020016040518060400160405280600b81526020017f4c6f6e6748616972426f6200000000000000000000000000000000000000000081525081526020016040518060400160405280600b81526020017f4c6f6e674861697242756e00000000000000000000000000000000000000000081525081526020016040518060400160405280600d81526020017f4c6f6e67486169724375726c790000000000000000000000000000000000000081525081526020016040518060400160405280600d81526020017f4c6f6e674861697243757276790000000000000000000000000000000000000081525081526020016040518060400160405280600e81526020017f4c6f6e674861697244726561647300000000000000000000000000000000000081525081526020016040518060400160405280600d81526020017f4c6f6e674861697246726964610000000000000000000000000000000000000081525081526020016040518060400160405280600b81526020017f4c6f6e674861697246726f00000000000000000000000000000000000000000081525081526020016040518060400160405280600f81526020017f4c6f6e674861697246726f42616e64000000000000000000000000000000000081525081526020016040518060400160405280601281526020017f4c6f6e67486169724e6f74546f6f4c6f6e67000000000000000000000000000081525081526020016040518060400160405280601381526020017f4c6f6e674861697253686176656453696465730000000000000000000000000081525081526020016040518060400160405280601281526020017f4c6f6e67486169724d696157616c6c616365000000000000000000000000000081525081526020016040518060400160405280601081526020017f4c6f6e674861697253747261696768740000000000000000000000000000000081525081526020016040518060400160405280601181526020017f4c6f6e674861697253747261696768743200000000000000000000000000000081525081526020016040518060400160405280601681526020017f4c6f6e67486169725374726169676874537472616e640000000000000000000081525081526020016040518060400160405280601181526020017f53686f727448616972447265616473303100000000000000000000000000000081525081526020016040518060400160405280601181526020017f53686f727448616972447265616473303200000000000000000000000000000081525081526020016040518060400160405280601081526020017f53686f7274486169724672697a7a6c650000000000000000000000000000000081525081526020016040518060400160405280601581526020017f53686f7274486169725368616767794d756c6c6574000000000000000000000081525081526020016040518060400160405280601381526020017f53686f72744861697253686f72744375726c790000000000000000000000000081525081526020016040518060400160405280601281526020017f53686f72744861697253686f7274466c6174000000000000000000000000000081525081526020016040518060400160405280601381526020017f53686f72744861697253686f7274526f756e640000000000000000000000000081525081526020016040518060400160405280601381526020017f53686f72744861697253686f727457617665640000000000000000000000000081525081526020016040518060400160405280600e81526020017f53686f727448616972536964657300000000000000000000000000000000000081525081526020016040518060400160405280601281526020017f53686f727448616972546865436165736172000000000000000000000000000081525081526020016040518060400160405280601a81526020017f53686f727448616972546865436165736172536964655061727400000000000081525081525060169060236200261e92919062002a38565b503480156200262c57600080fd5b506040516200783738038062007837833981810160405281019062002652919062002bfd565b6040518060400160405280600b81526020017f506c61747a6950756e6b730000000000000000000000000000000000000000008152506040518060400160405280600581526020017f504c504b530000000000000000000000000000000000000000000000000000008152508160009080519060200190620026d692919062002a9f565b508060019080519060200190620026ef92919062002a9f565b505050806018819055505062002c94565b82805482825590600052602060002090810192821562002754579160200282015b82811115620027535782518290805190602001906200274292919062002a9f565b509160200191906001019062002721565b5b50905062002763919062002b30565b5090565b828054828255906000526020600020908101928215620027bb579160200282015b82811115620027ba578251829080519060200190620027a992919062002a9f565b509160200191906001019062002788565b5b509050620027ca919062002b30565b5090565b82805482825590600052602060002090810192821562002822579160200282015b82811115620028215782518290805190602001906200281092919062002a9f565b5091602001919060010190620027ef565b5b50905062002831919062002b30565b5090565b82805482825590600052602060002090810192821562002889579160200282015b82811115620028885782518290805190602001906200287792919062002a9f565b509160200191906001019062002856565b5b50905062002898919062002b30565b5090565b828054828255906000526020600020908101928215620028f0579160200282015b82811115620028ef578251829080519060200190620028de92919062002a9f565b5091602001919060010190620028bd565b5b509050620028ff919062002b30565b5090565b82805482825590600052602060002090810192821562002957579160200282015b82811115620029565782518290805190602001906200294592919062002a9f565b509160200191906001019062002924565b5b50905062002966919062002b30565b5090565b828054828255906000526020600020908101928215620029be579160200282015b82811115620029bd578251829080519060200190620029ac92919062002a9f565b50916020019190600101906200298b565b5b509050620029cd919062002b30565b5090565b82805482825590600052602060002090810192821562002a25579160200282015b8281111562002a2457825182908051906020019062002a1392919062002a9f565b5091602001919060010190620029f2565b5b50905062002a34919062002b30565b5090565b82805482825590600052602060002090810192821562002a8c579160200282015b8281111562002a8b57825182908051906020019062002a7a92919062002a9f565b509160200191906001019062002a59565b5b50905062002a9b919062002b30565b5090565b82805462002aad9062002c5e565b90600052602060002090601f01602090048101928262002ad1576000855562002b1d565b82601f1062002aec57805160ff191683800117855562002b1d565b8280016001018555821562002b1d579182015b8281111562002b1c57825182559160200191906001019062002aff565b5b50905062002b2c919062002b58565b5090565b5b8082111562002b54576000818162002b4a919062002b77565b5060010162002b31565b5090565b5b8082111562002b7357600081600090555060010162002b59565b5090565b50805462002b859062002c5e565b6000825580601f1062002b99575062002bba565b601f01602090049060005260206000209081019062002bb9919062002b58565b5b50565b600080fd5b6000819050919050565b62002bd78162002bc2565b811462002be357600080fd5b50565b60008151905062002bf78162002bcc565b92915050565b60006020828403121562002c165762002c1562002bbd565b5b600062002c268482850162002be6565b91505092915050565b7f4e487b7100000000000000000000000000000000000000000000000000000000600052602260045260246000fd5b6000600282049050600182168062002c7757607f821691505b6020821081141562002c8e5762002c8d62002c2f565b5b50919050565b614b938062002ca46000396000f3fe608060405234801561001057600080fd5b50600436106102065760003560e01c80637ecaef061161011a578063b88d4fde116100ad578063cc4e56951161007c578063cc4e5695146106bb578063d5abeb01146106eb578063dac1419e14610709578063e2eced2814610739578063e985e9c51461076957610206565b8063b88d4fde1461060f578063be65d7511461062b578063c0496cf51461065b578063c87b56dd1461068b57610206565b806395d89b41116100e957806395d89b4114610575578063a22cb46514610593578063a2ec3e9e146105af578063b70930de146105df57610206565b80637ecaef06146104b557806384425a84146104e55780638602dd6a1461051557806388ee2c161461054557610206565b806323b872dd1161019d5780634f6ccce71161016c5780634f6ccce7146103c557806360d58aed146103f55780636352211e1461042557806370a082311461045557806373075aff1461048557610206565b806323b872dd1461032d5780632f745c5914610349578063425d784f1461037957806342842e0e146103a957610206565b8063095ea7b3116101d9578063095ea7b3146102b95780631249c58b146102d557806318160ddd146102df57806318a3c0d1146102fd57610206565b806301ffc9a71461020b578063039984ba1461023b57806306fdde031461026b578063081812fc14610289575b600080fd5b61022560048036038101906102209190613034565b610799565b604051610232919061307c565b60405180910390f35b610255600480360381019061025091906130cd565b6107ab565b6040516102629190613193565b60405180910390f35b61027361087d565b6040516102809190613193565b60405180910390f35b6102a3600480360381019061029e91906130cd565b61090f565b6040516102b091906131f6565b60405180910390f35b6102d360048036038101906102ce919061323d565b610955565b005b6102dd610a6d565b005b6102e7610af7565b6040516102f4919061328c565b60405180910390f35b610317600480360381019061031291906130cd565b610b04565b6040516103249190613193565b60405180910390f35b610347600480360381019061034291906132a7565b610bd6565b005b610363600480360381019061035e919061323d565b610c36565b604051610370919061328c565b60405180910390f35b610393600480360381019061038e91906130cd565b610cdb565b6040516103a09190613193565b60405180910390f35b6103c360048036038101906103be91906132a7565b610dad565b005b6103df60048036038101906103da91906130cd565b610dcd565b6040516103ec919061328c565b60405180910390f35b61040f600480360381019061040a91906130cd565b610e3e565b60405161041c9190613193565b60405180910390f35b61043f600480360381019061043a91906130cd565b610f10565b60405161044c91906131f6565b60405180910390f35b61046f600480360381019061046a91906132fa565b610fc2565b60405161047c919061328c565b60405180910390f35b61049f600480360381019061049a91906130cd565b61107a565b6040516104ac9190613193565b60405180910390f35b6104cf60048036038101906104ca91906130cd565b61114c565b6040516104dc9190613193565b60405180910390f35b6104ff60048036038101906104fa91906130cd565b61121e565b60405161050c9190613193565b60405180910390f35b61052f600480360381019061052a91906130cd565b6112f0565b60405161053c9190613193565b60405180910390f35b61055f600480360381019061055a9190613327565b6113c2565b60405161056c919061328c565b60405180910390f35b61057d611428565b60405161058a9190613193565b60405180910390f35b6105ad60048036038101906105a89190613393565b6114ba565b005b6105c960048036038101906105c491906130cd565b6114d0565b6040516105d69190613193565b60405180910390f35b6105f960048036038101906105f491906130cd565b6115a2565b6040516106069190613193565b60405180910390f35b61062960048036038101906106249190613508565b611674565b005b610645600480360381019061064091906130cd565b6116d6565b604051610652919061328c565b60405180910390f35b610675600480360381019061067091906130cd565b6116ee565b6040516106829190613193565b60405180910390f35b6106a560048036038101906106a091906130cd565b6117c0565b6040516106b29190613193565b60405180910390f35b6106d560048036038101906106d091906130cd565b61188f565b6040516106e29190613193565b60405180910390f35b6106f3611961565b604051610700919061328c565b60405180910390f35b610723600480360381019061071e91906130cd565b611967565b6040516107309190613193565b60405180910390f35b610753600480360381019061074e91906130cd565b611a39565b6040516107609190613193565b60405180910390f35b610783600480360381019061077e919061358b565b611a7f565b604051610790919061307c565b60405180910390f35b60006107a482611b13565b9050919050565b606060006107ba836008611b8d565b9050600e80805490508260ff166107d191906135fa565b815481106107e2576107e161362b565b5b9060005260206000200180546107f790613689565b80601f016020809104026020016040519081016040528092919081815260200182805461082390613689565b80156108705780601f1061084557610100808354040283529160200191610870565b820191906000526020600020905b81548152906001019060200180831161085357829003601f168201915b5050505050915050919050565b60606000805461088c90613689565b80601f01602080910402602001604051908101604052809291908181526020018280546108b890613689565b80156109055780601f106108da57610100808354040283529160200191610905565b820191906000526020600020905b8154815290600101906020018083116108e857829003601f168201915b5050505050905090565b600061091a82611bea565b6004600083815260200190815260200160002060009054906101000a900473ffffffffffffffffffffffffffffffffffffffff169050919050565b600061096082610f10565b90508073ffffffffffffffffffffffffffffffffffffffff168373ffffffffffffffffffffffffffffffffffffffff1614156109d1576040517f08c379a00000000000000000000000000000000000000000000000000000000081526004016109c89061372d565b60405180910390fd5b8073ffffffffffffffffffffffffffffffffffffffff166109f0611c35565b73ffffffffffffffffffffffffffffffffffffffff161480610a1f5750610a1e81610a19611c35565b611a7f565b5b610a5e576040517f08c379a0000000000000000000000000000000000000000000000000000000008152600401610a55906137bf565b60405180910390fd5b610a688383611c3d565b505050565b6000610a796017611cf6565b90506018548110610abf576040517f08c379a0000000000000000000000000000000000000000000000000000000008152600401610ab69061382b565b60405180910390fd5b610ac96017611d04565b610ad381336113c2565b6019600083815260200190815260200160002081905550610af43382611d1a565b50565b6000600880549050905090565b60606000610b13836004611b8d565b9050600c80805490508260ff16610b2a91906135fa565b81548110610b3b57610b3a61362b565b5b906000526020600020018054610b5090613689565b80601f0160208091040260200160405190810160405280929190818152602001828054610b7c90613689565b8015610bc95780601f10610b9e57610100808354040283529160200191610bc9565b820191906000526020600020905b815481529060010190602001808311610bac57829003601f168201915b5050505050915050919050565b610be7610be1611c35565b82611d38565b610c26576040517f08c379a0000000000000000000000000000000000000000000000000000000008152600401610c1d906138bd565b60405180910390fd5b610c31838383611dcd565b505050565b6000610c4183610fc2565b8210610c82576040517f08c379a0000000000000000000000000000000000000000000000000000000008152600401610c799061394f565b60405180910390fd5b600660008473ffffffffffffffffffffffffffffffffffffffff1673ffffffffffffffffffffffffffffffffffffffff168152602001908152602001600020600083815260200190815260200160002054905092915050565b60606000610cea836014611b8d565b9050601480805490508260ff16610d0191906135fa565b81548110610d1257610d1161362b565b5b906000526020600020018054610d2790613689565b80601f0160208091040260200160405190810160405280929190818152602001828054610d5390613689565b8015610da05780601f10610d7557610100808354040283529160200191610da0565b820191906000526020600020905b815481529060010190602001808311610d8357829003601f168201915b5050505050915050919050565b610dc883838360405180602001604052806000815250611674565b505050565b6000610dd7610af7565b8210610e18576040517f08c379a0000000000000000000000000000000000000000000000000000000008152600401610e0f906139e1565b60405180910390fd5b60088281548110610e2c57610e2b61362b565b5b90600052602060002001549050919050565b60606000610e4d836018611b8d565b9050601680805490508260ff16610e6491906135fa565b81548110610e7557610e7461362b565b5b906000526020600020018054610e8a90613689565b80601f0160208091040260200160405190810160405280929190818152602001828054610eb690613689565b8015610f035780601f10610ed857610100808354040283529160200191610f03565b820191906000526020600020905b815481529060010190602001808311610ee657829003601f168201915b5050505050915050919050565b6000806002600084815260200190815260200160002060009054906101000a900473ffffffffffffffffffffffffffffffffffffffff169050600073ffffffffffffffffffffffffffffffffffffffff168173ffffffffffffffffffffffffffffffffffffffff161415610fb9576040517f08c379a0000000000000000000000000000000000000000000000000000000008152600401610fb090613a4d565b60405180910390fd5b80915050919050565b60008073ffffffffffffffffffffffffffffffffffffffff168273ffffffffffffffffffffffffffffffffffffffff161415611033576040517f08c379a000000000000000000000000000000000000000000000000000000000815260040161102a90613adf565b60405180910390fd5b600360008373ffffffffffffffffffffffffffffffffffffffff1673ffffffffffffffffffffffffffffffffffffffff168152602001908152602001600020549050919050565b60606000611089836016611b8d565b9050601580805490508260ff166110a091906135fa565b815481106110b1576110b061362b565b5b9060005260206000200180546110c690613689565b80601f01602080910402602001604051908101604052809291908181526020018280546110f290613689565b801561113f5780601f106111145761010080835404028352916020019161113f565b820191906000526020600020905b81548152906001019060200180831161112257829003601f168201915b5050505050915050919050565b6060600061115b836000611b8d565b9050600a80805490508260ff1661117291906135fa565b815481106111835761118261362b565b5b90600052602060002001805461119890613689565b80601f01602080910402602001604051908101604052809291908181526020018280546111c490613689565b80156112115780601f106111e657610100808354040283529160200191611211565b820191906000526020600020905b8154815290600101906020018083116111f457829003601f168201915b5050505050915050919050565b6060600061122d836006611b8d565b9050600d80805490508260ff1661124491906135fa565b815481106112555761125461362b565b5b90600052602060002001805461126a90613689565b80601f016020809104026020016040519081016040528092919081815260200182805461129690613689565b80156112e35780601f106112b8576101008083540402835291602001916112e3565b820191906000526020600020905b8154815290600101906020018083116112c657829003601f168201915b5050505050915050919050565b606060006112ff836012611b8d565b9050601380805490508260ff1661131691906135fa565b815481106113275761132661362b565b5b90600052602060002001805461133c90613689565b80601f016020809104026020016040519081016040528092919081815260200182805461136890613689565b80156113b55780601f1061138a576101008083540402835291602001916113b5565b820191906000526020600020905b81548152906001019060200180831161139857829003601f168201915b5050505050915050919050565b6000808273ffffffffffffffffffffffffffffffffffffffff16846113e79190613b2e565b90506000816040516020016113fc9190613ba5565b60405160208183030381529060405290506000818051906020012090508060001c935050505092915050565b60606001805461143790613689565b80601f016020809104026020016040519081016040528092919081815260200182805461146390613689565b80156114b05780601f10611485576101008083540402835291602001916114b0565b820191906000526020600020905b81548152906001019060200180831161149357829003601f168201915b5050505050905090565b6114cc6114c5611c35565b8383612034565b5050565b606060006114df836010611b8d565b9050601280805490508260ff166114f691906135fa565b815481106115075761150661362b565b5b90600052602060002001805461151c90613689565b80601f016020809104026020016040519081016040528092919081815260200182805461154890613689565b80156115955780601f1061156a57610100808354040283529160200191611595565b820191906000526020600020905b81548152906001019060200180831161157857829003601f168201915b5050505050915050919050565b606060006115b183600e611b8d565b9050601180805490508260ff166115c891906135fa565b815481106115d9576115d861362b565b5b9060005260206000200180546115ee90613689565b80601f016020809104026020016040519081016040528092919081815260200182805461161a90613689565b80156116675780601f1061163c57610100808354040283529160200191611667565b820191906000526020600020905b81548152906001019060200180831161164a57829003601f168201915b5050505050915050919050565b61168561167f611c35565b83611d38565b6116c4576040517f08c379a00000000000000000000000000000000000000000000000000000000081526004016116bb906138bd565b60405180910390fd5b6116d0848484846121a1565b50505050565b60196020528060005260406000206000915090505481565b606060006116fd836002611b8d565b9050600b80805490508260ff1661171491906135fa565b815481106117255761172461362b565b5b90600052602060002001805461173a90613689565b80601f016020809104026020016040519081016040528092919081815260200182805461176690613689565b80156117b35780601f10611788576101008083540402835291602001916117b3565b820191906000526020600020905b81548152906001019060200180831161179657829003601f168201915b5050505050915050919050565b60606117cb826121fd565b61180a576040517f08c379a000000000000000000000000000000000000000000000000000000000815260040161180190613c32565b60405180910390fd5b600060196000848152602001908152602001600020549050600061182d82611a39565b9050600061186361183d86612269565b8360405160200161184f929190613de4565b6040516020818303038152906040526123ca565b9050806040516020016118769190613e75565b6040516020818303038152906040529350505050919050565b6060600061189e83600a611b8d565b9050600f80805490508260ff166118b591906135fa565b815481106118c6576118c561362b565b5b9060005260206000200180546118db90613689565b80601f016020809104026020016040519081016040528092919081815260200182805461190790613689565b80156119545780601f1061192957610100808354040283529160200191611954565b820191906000526020600020905b81548152906001019060200180831161193757829003601f168201915b5050505050915050919050565b60185481565b6060600061197683600c611b8d565b9050601080805490508260ff1661198d91906135fa565b8154811061199e5761199d61362b565b5b9060005260206000200180546119b390613689565b80601f01602080910402602001604051908101604052809291908181526020018280546119df90613689565b8015611a2c5780601f10611a0157610100808354040283529160200191611a2c565b820191906000526020600020905b815481529060010190602001808311611a0f57829003601f168201915b5050505050915050919050565b60606000611a4561254f565b90506000611a528461258c565b90508181604051602001611a67929190613ee3565b60405160208183030381529060405292505050919050565b6000600560008473ffffffffffffffffffffffffffffffffffffffff1673ffffffffffffffffffffffffffffffffffffffff16815260200190815260200160002060008373ffffffffffffffffffffffffffffffffffffffff1673ffffffffffffffffffffffffffffffffffffffff16815260200190815260200160002060009054906101000a900460ff16905092915050565b60007f780e9d63000000000000000000000000000000000000000000000000000000007bffffffffffffffffffffffffffffffffffffffffffffffffffffffff1916827bffffffffffffffffffffffffffffffffffffffffffffffffffffffff19161480611b865750611b8582612659565b5b9050919050565b600081600a611b9c9190614052565b6001611ba8919061409d565b600283611bb591906140f7565b600a611bc19190614052565b6001611bcd919061409d565b84611bd891906135fa565b611be2919061412e565b905092915050565b611bf3816121fd565b611c32576040517f08c379a0000000000000000000000000000000000000000000000000000000008152600401611c2990613a4d565b60405180910390fd5b50565b600033905090565b816004600083815260200190815260200160002060006101000a81548173ffffffffffffffffffffffffffffffffffffffff021916908373ffffffffffffffffffffffffffffffffffffffff160217905550808273ffffffffffffffffffffffffffffffffffffffff16611cb083610f10565b73ffffffffffffffffffffffffffffffffffffffff167f8c5be1e5ebec7d5bd14f71427d1e84f3dd0314c0f7b2291e5b200ac8c7c3b92560405160405180910390a45050565b600081600001549050919050565b6001816000016000828254019250508190555050565b611d3482826040518060200160405280600081525061273b565b5050565b600080611d4483610f10565b90508073ffffffffffffffffffffffffffffffffffffffff168473ffffffffffffffffffffffffffffffffffffffff161480611d865750611d858185611a7f565b5b80611dc457508373ffffffffffffffffffffffffffffffffffffffff16611dac8461090f565b73ffffffffffffffffffffffffffffffffffffffff16145b91505092915050565b8273ffffffffffffffffffffffffffffffffffffffff16611ded82610f10565b73ffffffffffffffffffffffffffffffffffffffff1614611e43576040517f08c379a0000000000000000000000000000000000000000000000000000000008152600401611e3a906141d1565b60405180910390fd5b600073ffffffffffffffffffffffffffffffffffffffff168273ffffffffffffffffffffffffffffffffffffffff161415611eb3576040517f08c379a0000000000000000000000000000000000000000000000000000000008152600401611eaa90614263565b60405180910390fd5b611ebe838383612796565b611ec9600082611c3d565b6001600360008573ffffffffffffffffffffffffffffffffffffffff1673ffffffffffffffffffffffffffffffffffffffff1681526020019081526020016000206000828254611f199190614283565b925050819055506001600360008473ffffffffffffffffffffffffffffffffffffffff1673ffffffffffffffffffffffffffffffffffffffff1681526020019081526020016000206000828254611f709190613b2e565b92505081905550816002600083815260200190815260200160002060006101000a81548173ffffffffffffffffffffffffffffffffffffffff021916908373ffffffffffffffffffffffffffffffffffffffff160217905550808273ffffffffffffffffffffffffffffffffffffffff168473ffffffffffffffffffffffffffffffffffffffff167fddf252ad1be2c89b69c2b068fc378daa952ba7f163c4a11628f55a4df523b3ef60405160405180910390a461202f8383836127a6565b505050565b8173ffffffffffffffffffffffffffffffffffffffff168373ffffffffffffffffffffffffffffffffffffffff1614156120a3576040517f08c379a000000000000000000000000000000000000000000000000000000000815260040161209a90614303565b60405180910390fd5b80600560008573ffffffffffffffffffffffffffffffffffffffff1673ffffffffffffffffffffffffffffffffffffffff16815260200190815260200160002060008473ffffffffffffffffffffffffffffffffffffffff1673ffffffffffffffffffffffffffffffffffffffff16815260200190815260200160002060006101000a81548160ff0219169083151502179055508173ffffffffffffffffffffffffffffffffffffffff168373ffffffffffffffffffffffffffffffffffffffff167f17307eab39ab6107e8899845ad3d59bd9653f200f220920489ca2b5937696c3183604051612194919061307c565b60405180910390a3505050565b6121ac848484611dcd565b6121b8848484846127ab565b6121f7576040517f08c379a00000000000000000000000000000000000000000000000000000000081526004016121ee90614395565b60405180910390fd5b50505050565b60008073ffffffffffffffffffffffffffffffffffffffff166002600084815260200190815260200160002060009054906101000a900473ffffffffffffffffffffffffffffffffffffffff1673ffffffffffffffffffffffffffffffffffffffff1614159050919050565b606060008214156122b1576040518060400160405280600181526020017f300000000000000000000000000000000000000000000000000000000000000081525090506123c5565b600082905060005b600082146122e35780806122cc906143b5565b915050600a826122dc919061412e565b91506122b9565b60008167ffffffffffffffff8111156122ff576122fe6133dd565b5b6040519080825280601f01601f1916602001820160405280156123315781602001600182028036833780820191505090505b5090505b600085146123be5760018261234a9190614283565b9150600a8561235991906135fa565b60306123659190613b2e565b60f81b81838151811061237b5761237a61362b565b5b60200101907effffffffffffffffffffffffffffffffffffffffffffffffffffffffffffff1916908160001a905350600a856123b7919061412e565b9450612335565b8093505050505b919050565b60606000825114156123ed5760405180602001604052806000815250905061254a565b6000604051806060016040528060408152602001614b1e604091399050600060036002855161241c9190613b2e565b612426919061412e565b6004612432919061409d565b905060006020826124439190613b2e565b67ffffffffffffffff81111561245c5761245b6133dd565b5b6040519080825280601f01601f19166020018201604052801561248e5781602001600182028036833780820191505090505b509050818152600183018586518101602084015b81831015612509576003830192508251603f8160121c1685015160f81b8252600182019150603f81600c1c1685015160f81b8252600182019150603f8160061c1685015160f81b8252600182019150603f811685015160f81b8252600182019150506124a2565b60038951066001811461252357600281146125335761253e565b613d3d60f01b600283035261253e565b603d60f81b60018303525b50505050508093505050505b919050565b60606040518060400160405280601581526020017f68747470733a2f2f6176617461616172732e696f2f0000000000000000000000815250905090565b6060806125988361114c565b6125a1846116ee565b6125aa85610b04565b6125b38661121e565b6125bc876107ab565b6125c58861188f565b6125ce89611967565b6125d78a6115a2565b6125e08b6114d0565b6125e98c6112f0565b6125f28d610cdb565b6125fb8e61107a565b6040516020016126169c9b9a9998979695949392919061478e565b60405160208183030381529060405290508061263184610e3e565b604051602001612642929190614904565b604051602081830303815290604052915050919050565b60007f80ac58cd000000000000000000000000000000000000000000000000000000007bffffffffffffffffffffffffffffffffffffffffffffffffffffffff1916827bffffffffffffffffffffffffffffffffffffffffffffffffffffffff1916148061272457507f5b5e139f000000000000000000000000000000000000000000000000000000007bffffffffffffffffffffffffffffffffffffffffffffffffffffffff1916827bffffffffffffffffffffffffffffffffffffffffffffffffffffffff1916145b80612734575061273382612942565b5b9050919050565b61274583836129ac565b61275260008484846127ab565b612791576040517f08c379a000000000000000000000000000000000000000000000000000000000815260040161278890614395565b60405180910390fd5b505050565b6127a1838383612b86565b505050565b505050565b60006127cc8473ffffffffffffffffffffffffffffffffffffffff16612c9a565b15612935578373ffffffffffffffffffffffffffffffffffffffff1663150b7a026127f5611c35565b8786866040518563ffffffff1660e01b81526004016128179493929190614988565b602060405180830381600087803b15801561283157600080fd5b505af192505050801561286257506040513d601f19601f8201168201806040525081019061285f91906149e9565b60015b6128e5573d8060008114612892576040519150601f19603f3d011682016040523d82523d6000602084013e612897565b606091505b506000815114156128dd576040517f08c379a00000000000000000000000000000000000000000000000000000000081526004016128d490614395565b60405180910390fd5b805181602001fd5b63150b7a0260e01b7bffffffffffffffffffffffffffffffffffffffffffffffffffffffff1916817bffffffffffffffffffffffffffffffffffffffffffffffffffffffff19161491505061293a565b600190505b949350505050565b60007f01ffc9a7000000000000000000000000000000000000000000000000000000007bffffffffffffffffffffffffffffffffffffffffffffffffffffffff1916827bffffffffffffffffffffffffffffffffffffffffffffffffffffffff1916149050919050565b600073ffffffffffffffffffffffffffffffffffffffff168273ffffffffffffffffffffffffffffffffffffffff161415612a1c576040517f08c379a0000000000000000000000000000000000000000000000000000000008152600401612a1390614a62565b60405180910390fd5b612a25816121fd565b15612a65576040517f08c379a0000000000000000000000000000000000000000000000000000000008152600401612a5c90614ace565b60405180910390fd5b612a7160008383612796565b6001600360008473ffffffffffffffffffffffffffffffffffffffff1673ffffffffffffffffffffffffffffffffffffffff1681526020019081526020016000206000828254612ac19190613b2e565b92505081905550816002600083815260200190815260200160002060006101000a81548173ffffffffffffffffffffffffffffffffffffffff021916908373ffffffffffffffffffffffffffffffffffffffff160217905550808273ffffffffffffffffffffffffffffffffffffffff16600073ffffffffffffffffffffffffffffffffffffffff167fddf252ad1be2c89b69c2b068fc378daa952ba7f163c4a11628f55a4df523b3ef60405160405180910390a4612b82600083836127a6565b5050565b612b91838383612cbd565b600073ffffffffffffffffffffffffffffffffffffffff168373ffffffffffffffffffffffffffffffffffffffff161415612bd457612bcf81612cc2565b612c13565b8173ffffffffffffffffffffffffffffffffffffffff168373ffffffffffffffffffffffffffffffffffffffff1614612c1257612c118382612d0b565b5b5b600073ffffffffffffffffffffffffffffffffffffffff168273ffffffffffffffffffffffffffffffffffffffff161415612c5657612c5181612e78565b612c95565b8273ffffffffffffffffffffffffffffffffffffffff168273ffffffffffffffffffffffffffffffffffffffff1614612c9457612c938282612f49565b5b5b505050565b6000808273ffffffffffffffffffffffffffffffffffffffff163b119050919050565b505050565b6008805490506009600083815260200190815260200160002081905550600881908060018154018082558091505060019003906000526020600020016000909190919091505550565b60006001612d1884610fc2565b612d229190614283565b9050600060076000848152602001908152602001600020549050818114612e07576000600660008673ffffffffffffffffffffffffffffffffffffffff1673ffffffffffffffffffffffffffffffffffffffff168152602001908152602001600020600084815260200190815260200160002054905080600660008773ffffffffffffffffffffffffffffffffffffffff1673ffffffffffffffffffffffffffffffffffffffff168152602001908152602001600020600084815260200190815260200160002081905550816007600083815260200190815260200160002081905550505b6007600084815260200190815260200160002060009055600660008573ffffffffffffffffffffffffffffffffffffffff1673ffffffffffffffffffffffffffffffffffffffff16815260200190815260200160002060008381526020019081526020016000206000905550505050565b60006001600880549050612e8c9190614283565b9050600060096000848152602001908152602001600020549050600060088381548110612ebc57612ebb61362b565b5b906000526020600020015490508060088381548110612ede57612edd61362b565b5b906000526020600020018190555081600960008381526020019081526020016000208190555060096000858152602001908152602001600020600090556008805480612f2d57612f2c614aee565b5b6001900381819060005260206000200160009055905550505050565b6000612f5483610fc2565b905081600660008573ffffffffffffffffffffffffffffffffffffffff1673ffffffffffffffffffffffffffffffffffffffff168152602001908152602001600020600083815260200190815260200160002081905550806007600084815260200190815260200160002081905550505050565b6000604051905090565b600080fd5b600080fd5b60007fffffffff0000000000000000000000000000000000000000000000000000000082169050919050565b61301181612fdc565b811461301c57600080fd5b50565b60008135905061302e81613008565b92915050565b60006020828403121561304a57613049612fd2565b5b60006130588482850161301f565b91505092915050565b60008115159050919050565b61307681613061565b82525050565b6000602082019050613091600083018461306d565b92915050565b6000819050919050565b6130aa81613097565b81146130b557600080fd5b50565b6000813590506130c7816130a1565b92915050565b6000602082840312156130e3576130e2612fd2565b5b60006130f1848285016130b8565b91505092915050565b600081519050919050565b600082825260208201905092915050565b60005b83811015613134578082015181840152602081019050613119565b83811115613143576000848401525b50505050565b6000601f19601f8301169050919050565b6000613165826130fa565b61316f8185613105565b935061317f818560208601613116565b61318881613149565b840191505092915050565b600060208201905081810360008301526131ad818461315a565b905092915050565b600073ffffffffffffffffffffffffffffffffffffffff82169050919050565b60006131e0826131b5565b9050919050565b6131f0816131d5565b82525050565b600060208201905061320b60008301846131e7565b92915050565b61321a816131d5565b811461322557600080fd5b50565b60008135905061323781613211565b92915050565b6000806040838503121561325457613253612fd2565b5b600061326285828601613228565b9250506020613273858286016130b8565b9150509250929050565b61328681613097565b82525050565b60006020820190506132a1600083018461327d565b92915050565b6000806000606084860312156132c0576132bf612fd2565b5b60006132ce86828701613228565b93505060206132df86828701613228565b92505060406132f0868287016130b8565b9150509250925092565b6000602082840312156133105761330f612fd2565b5b600061331e84828501613228565b91505092915050565b6000806040838503121561333e5761333d612fd2565b5b600061334c858286016130b8565b925050602061335d85828601613228565b9150509250929050565b61337081613061565b811461337b57600080fd5b50565b60008135905061338d81613367565b92915050565b600080604083850312156133aa576133a9612fd2565b5b60006133b885828601613228565b92505060206133c98582860161337e565b9150509250929050565b600080fd5b600080fd5b7f4e487b7100000000000000000000000000000000000000000000000000000000600052604160045260246000fd5b61341582613149565b810181811067ffffffffffffffff82111715613434576134336133dd565b5b80604052505050565b6000613447612fc8565b9050613453828261340c565b919050565b600067ffffffffffffffff821115613473576134726133dd565b5b61347c82613149565b9050602081019050919050565b82818337600083830152505050565b60006134ab6134a684613458565b61343d565b9050828152602081018484840111156134c7576134c66133d8565b5b6134d2848285613489565b509392505050565b600082601f8301126134ef576134ee6133d3565b5b81356134ff848260208601613498565b91505092915050565b6000806000806080858703121561352257613521612fd2565b5b600061353087828801613228565b945050602061354187828801613228565b9350506040613552878288016130b8565b925050606085013567ffffffffffffffff81111561357357613572612fd7565b5b61357f878288016134da565b91505092959194509250565b600080604083850312156135a2576135a1612fd2565b5b60006135b085828601613228565b92505060206135c185828601613228565b9150509250929050565b7f4e487b7100000000000000000000000000000000000000000000000000000000600052601260045260246000fd5b600061360582613097565b915061361083613097565b9250826136205761361f6135cb565b5b828206905092915050565b7f4e487b7100000000000000000000000000000000000000000000000000000000600052603260045260246000fd5b7f4e487b7100000000000000000000000000000000000000000000000000000000600052602260045260246000fd5b600060028204905060018216806136a157607f821691505b602082108114156136b5576136b461365a565b5b50919050565b7f4552433732313a20617070726f76616c20746f2063757272656e74206f776e6560008201527f7200000000000000000000000000000000000000000000000000000000000000602082015250565b6000613717602183613105565b9150613722826136bb565b604082019050919050565b600060208201905081810360008301526137468161370a565b9050919050565b7f4552433732313a20617070726f76652063616c6c6572206973206e6f7420746f60008201527f6b656e206f776e6572206e6f7220617070726f76656420666f7220616c6c0000602082015250565b60006137a9603e83613105565b91506137b48261374d565b604082019050919050565b600060208201905081810360008301526137d88161379c565b9050919050565b7f4e6f20506c61747a6950756e6b73206c656674203a2800000000000000000000600082015250565b6000613815601683613105565b9150613820826137df565b602082019050919050565b6000602082019050818103600083015261384481613808565b9050919050565b7f4552433732313a2063616c6c6572206973206e6f7420746f6b656e206f776e6560008201527f72206e6f7220617070726f766564000000000000000000000000000000000000602082015250565b60006138a7602e83613105565b91506138b28261384b565b604082019050919050565b600060208201905081810360008301526138d68161389a565b9050919050565b7f455243373231456e756d657261626c653a206f776e657220696e646578206f7560008201527f74206f6620626f756e6473000000000000000000000000000000000000000000602082015250565b6000613939602b83613105565b9150613944826138dd565b604082019050919050565b600060208201905081810360008301526139688161392c565b9050919050565b7f455243373231456e756d657261626c653a20676c6f62616c20696e646578206f60008201527f7574206f6620626f756e64730000000000000000000000000000000000000000602082015250565b60006139cb602c83613105565b91506139d68261396f565b604082019050919050565b600060208201905081810360008301526139fa816139be565b9050919050565b7f4552433732313a20696e76616c696420746f6b656e2049440000000000000000600082015250565b6000613a37601883613105565b9150613a4282613a01565b602082019050919050565b60006020820190508181036000830152613a6681613a2a565b9050919050565b7f4552433732313a2061646472657373207a65726f206973206e6f74206120766160008201527f6c6964206f776e65720000000000000000000000000000000000000000000000602082015250565b6000613ac9602983613105565b9150613ad482613a6d565b604082019050919050565b60006020820190508181036000830152613af881613abc565b9050919050565b7f4e487b7100000000000000000000000000000000000000000000000000000000600052601160045260246000fd5b6000613b3982613097565b9150613b4483613097565b9250827fffffffffffffffffffffffffffffffffffffffffffffffffffffffffffffffff03821115613b7957613b78613aff565b5b828201905092915050565b6000819050919050565b613b9f613b9a82613097565b613b84565b82525050565b6000613bb18284613b8e565b60208201915081905092915050565b7f455243373231204d657461646174613a2055524920717565727920666f72206e60008201527f6f6e6578697374656e7420746f6b656e00000000000000000000000000000000602082015250565b6000613c1c603083613105565b9150613c2782613bc0565b604082019050919050565b60006020820190508181036000830152613c4b81613c0f565b9050919050565b600081905092915050565b7f7b20226e616d65223a2022506c61747a6950756e6b7320230000000000000000600082015250565b6000613c93601883613c52565b9150613c9e82613c5d565b601882019050919050565b6000613cb4826130fa565b613cbe8185613c52565b9350613cce818560208601613116565b80840191505092915050565b7f222c20226465736372697074696f6e223a2022506c61747a692050756e6b732060008201527f6172652072616e646f6d697a6564204176617461616172732073746f7265642060208201527f6f6e20636861696e20746f207465616368204441707020646576656c6f706d6560408201527f6e74206f6e20506c61747a69222c2022696d616765223a202200000000000000606082015250565b6000613d82607983613c52565b9150613d8d82613cda565b607982019050919050565b7f227d000000000000000000000000000000000000000000000000000000000000600082015250565b6000613dce600283613c52565b9150613dd982613d98565b600282019050919050565b6000613def82613c86565b9150613dfb8285613ca9565b9150613e0682613d75565b9150613e128284613ca9565b9150613e1d82613dc1565b91508190509392505050565b7f646174613a6170706c69636174696f6e2f6a736f6e3b6261736536342c000000600082015250565b6000613e5f601d83613c52565b9150613e6a82613e29565b601d82019050919050565b6000613e8082613e52565b9150613e8c8284613ca9565b915081905092915050565b7f3f00000000000000000000000000000000000000000000000000000000000000600082015250565b6000613ecd600183613c52565b9150613ed882613e97565b600182019050919050565b6000613eef8285613ca9565b9150613efa82613ec0565b9150613f068284613ca9565b91508190509392505050565b60008160011c9050919050565b6000808291508390505b6001851115613f6957808604811115613f4557613f44613aff565b5b6001851615613f545780820291505b8081029050613f6285613f12565b9450613f29565b94509492505050565b600082613f82576001905061403e565b81613f90576000905061403e565b8160018114613fa65760028114613fb057613fdf565b600191505061403e565b60ff841115613fc257613fc1613aff565b5b8360020a915084821115613fd957613fd8613aff565b5b5061403e565b5060208310610133831016604e8410600b84101617156140145782820a90508381111561400f5761400e613aff565b5b61403e565b6140218484846001613f1f565b9250905081840481111561403857614037613aff565b5b81810290505b9392505050565b600060ff82169050919050565b600061405d82613097565b915061406883614045565b92506140957fffffffffffffffffffffffffffffffffffffffffffffffffffffffffffffffff8484613f72565b905092915050565b60006140a882613097565b91506140b383613097565b9250817fffffffffffffffffffffffffffffffffffffffffffffffffffffffffffffffff04831182151516156140ec576140eb613aff565b5b828202905092915050565b600061410282614045565b915061410d83614045565b92508260ff0382111561412357614122613aff565b5b828201905092915050565b600061413982613097565b915061414483613097565b925082614154576141536135cb565b5b828204905092915050565b7f4552433732313a207472616e736665722066726f6d20696e636f72726563742060008201527f6f776e6572000000000000000000000000000000000000000000000000000000602082015250565b60006141bb602583613105565b91506141c68261415f565b604082019050919050565b600060208201905081810360008301526141ea816141ae565b9050919050565b7f4552433732313a207472616e7366657220746f20746865207a65726f2061646460008201527f7265737300000000000000000000000000000000000000000000000000000000602082015250565b600061424d602483613105565b9150614258826141f1565b604082019050919050565b6000602082019050818103600083015261427c81614240565b9050919050565b600061428e82613097565b915061429983613097565b9250828210156142ac576142ab613aff565b5b828203905092915050565b7f4552433732313a20617070726f766520746f2063616c6c657200000000000000600082015250565b60006142ed601983613105565b91506142f8826142b7565b602082019050919050565b6000602082019050818103600083015261431c816142e0565b9050919050565b7f4552433732313a207472616e7366657220746f206e6f6e20455243373231526560008201527f63656976657220696d706c656d656e7465720000000000000000000000000000602082015250565b600061437f603283613105565b915061438a82614323565b604082019050919050565b600060208201905081810360008301526143ae81614372565b9050919050565b60006143c082613097565b91507fffffffffffffffffffffffffffffffffffffffffffffffffffffffffffffffff8214156143f3576143f2613aff565b5b600182019050919050565b7f6163636573736f72696573547970653d00000000000000000000000000000000600082015250565b6000614434601083613c52565b915061443f826143fe565b601082019050919050565b7f26636c6f746865436f6c6f723d00000000000000000000000000000000000000600082015250565b6000614480600d83613c52565b915061448b8261444a565b600d82019050919050565b7f26636c6f746865547970653d0000000000000000000000000000000000000000600082015250565b60006144cc600c83613c52565b91506144d782614496565b600c82019050919050565b7f26657965547970653d0000000000000000000000000000000000000000000000600082015250565b6000614518600983613c52565b9150614523826144e2565b600982019050919050565b7f2665796562726f77547970653d00000000000000000000000000000000000000600082015250565b6000614564600d83613c52565b915061456f8261452e565b600d82019050919050565b7f2666616369616c48616972436f6c6f723d000000000000000000000000000000600082015250565b60006145b0601183613c52565b91506145bb8261457a565b601182019050919050565b7f2666616369616c48616972547970653d00000000000000000000000000000000600082015250565b60006145fc601083613c52565b9150614607826145c6565b601082019050919050565b7f2668616972436f6c6f723d000000000000000000000000000000000000000000600082015250565b6000614648600b83613c52565b915061465382614612565b600b82019050919050565b7f26686174436f6c6f723d00000000000000000000000000000000000000000000600082015250565b6000614694600a83613c52565b915061469f8261465e565b600a82019050919050565b7f2667726170686963547970653d00000000000000000000000000000000000000600082015250565b60006146e0600d83613c52565b91506146eb826146aa565b600d82019050919050565b7f266d6f757468547970653d000000000000000000000000000000000000000000600082015250565b600061472c600b83613c52565b9150614737826146f6565b600b82019050919050565b7f26736b696e436f6c6f723d000000000000000000000000000000000000000000600082015250565b6000614778600b83613c52565b915061478382614742565b600b82019050919050565b600061479982614427565b91506147a5828f613ca9565b91506147b082614473565b91506147bc828e613ca9565b91506147c7826144bf565b91506147d3828d613ca9565b91506147de8261450b565b91506147ea828c613ca9565b91506147f582614557565b9150614801828b613ca9565b915061480c826145a3565b9150614818828a613ca9565b9150614823826145ef565b915061482f8289613ca9565b915061483a8261463b565b91506148468288613ca9565b915061485182614687565b915061485d8287613ca9565b9150614868826146d3565b91506148748286613ca9565b915061487f8261471f565b915061488b8285613ca9565b91506148968261476b565b91506148a28284613ca9565b91508190509d9c50505050505050505050505050565b7f26746f70547970653d0000000000000000000000000000000000000000000000600082015250565b60006148ee600983613c52565b91506148f9826148b8565b600982019050919050565b60006149108285613ca9565b915061491b826148e1565b91506149278284613ca9565b91508190509392505050565b600081519050919050565b600082825260208201905092915050565b600061495a82614933565b614964818561493e565b9350614974818560208601613116565b61497d81613149565b840191505092915050565b600060808201905061499d60008301876131e7565b6149aa60208301866131e7565b6149b7604083018561327d565b81810360608301526149c9818461494f565b905095945050505050565b6000815190506149e381613008565b92915050565b6000602082840312156149ff576149fe612fd2565b5b6000614a0d848285016149d4565b91505092915050565b7f4552433732313a206d696e7420746f20746865207a65726f2061646472657373600082015250565b6000614a4c602083613105565b9150614a5782614a16565b602082019050919050565b60006020820190508181036000830152614a7b81614a3f565b9050919050565b7f4552433732313a20746f6b656e20616c7265616479206d696e74656400000000600082015250565b6000614ab8601c83613105565b9150614ac382614a82565b602082019050919050565b60006020820190508181036000830152614ae781614aab565b9050919050565b7f4e487b7100000000000000000000000000000000000000000000000000000000600052603160045260246000fdfe4142434445464748494a4b4c4d4e4f505152535455565758595a6162636465666768696a6b6c6d6e6f707172737475767778797a303132333435363738392b2fa264697066735822122051f90d49e0c30c819c92b7d5b3da2079661ae57e0c013fe36248157c58ec0e9664736f6c63430008090033",
  "linkReferences": {},
  "deployedLinkReferences": {}
}